{
  "_format": "hh-sol-artifact-1",
  "contractName": "Voting",
  "sourceName": "contracts/Voting.sol",
  "abi": [
    {
      "anonymous": false,
      "inputs": [
        {
          "indexed": false,
          "internalType": "address[]",
          "name": "_BODs",
          "type": "address[]"
        }
      ],
      "name": "BODRemoved",
      "type": "event"
    },
    {
      "anonymous": false,
      "inputs": [
        {
          "indexed": false,
          "internalType": "address[]",
          "name": "_BODs",
          "type": "address[]"
        }
      ],
      "name": "BODSet",
      "type": "event"
    },
    {
      "anonymous": false,
      "inputs": [
        {
          "indexed": true,
          "internalType": "address",
          "name": "previousOwner",
          "type": "address"
        },
        {
          "indexed": true,
          "internalType": "address",
          "name": "newOwner",
          "type": "address"
        }
      ],
      "name": "OwnershipTransferred",
      "type": "event"
    },
    {
      "anonymous": false,
      "inputs": [
        {
          "indexed": false,
          "internalType": "address[]",
          "name": "_students",
          "type": "address[]"
        }
      ],
      "name": "StudentRemoved",
      "type": "event"
    },
    {
      "anonymous": false,
      "inputs": [
        {
          "indexed": false,
          "internalType": "address[]",
          "name": "_students",
          "type": "address[]"
        }
      ],
      "name": "StudentSet",
      "type": "event"
    },
    {
      "anonymous": false,
      "inputs": [
        {
          "indexed": false,
          "internalType": "address[]",
          "name": "_teachers",
          "type": "address[]"
        }
      ],
      "name": "TeacherRemoved",
      "type": "event"
    },
    {
      "anonymous": false,
      "inputs": [
        {
          "indexed": false,
          "internalType": "address[]",
          "name": "_teachers",
          "type": "address[]"
        }
      ],
      "name": "TeacherSet",
      "type": "event"
    },
    {
      "inputs": [
        {
          "internalType": "uint256",
          "name": "",
          "type": "uint256"
        }
      ],
      "name": "BOD",
      "outputs": [
        {
          "internalType": "address",
          "name": "",
          "type": "address"
        }
      ],
      "stateMutability": "view",
      "type": "function"
    },
    {
      "inputs": [],
      "name": "PauseContract",
      "outputs": [],
      "stateMutability": "nonpayable",
      "type": "function"
    },
    {
      "inputs": [],
      "name": "PlayContract",
      "outputs": [],
      "stateMutability": "nonpayable",
      "type": "function"
    },
    {
      "inputs": [],
      "name": "ReleaseResults",
      "outputs": [],
      "stateMutability": "nonpayable",
      "type": "function"
    },
    {
      "inputs": [
        {
          "internalType": "address",
          "name": "_candidateAddress",
          "type": "address"
        },
        {
          "internalType": "string",
          "name": "_name",
          "type": "string"
        },
        {
          "internalType": "string",
          "name": "_slogan",
          "type": "string"
        }
      ],
      "name": "addCandidate",
      "outputs": [],
      "stateMutability": "nonpayable",
      "type": "function"
    },
    {
      "inputs": [
        {
          "internalType": "uint256",
          "name": "",
          "type": "uint256"
        }
      ],
      "name": "candidateDetails",
      "outputs": [
        {
          "internalType": "address",
          "name": "candidateAddress",
          "type": "address"
        },
        {
          "internalType": "uint256",
          "name": "candidateId",
          "type": "uint256"
        },
        {
          "internalType": "string",
          "name": "name",
          "type": "string"
        },
        {
          "internalType": "string",
          "name": "slogan",
          "type": "string"
        },
        {
          "internalType": "uint256",
          "name": "voteCount",
          "type": "uint256"
        }
      ],
      "stateMutability": "view",
      "type": "function"
    },
    {
      "inputs": [
        {
          "internalType": "uint256",
          "name": "",
          "type": "uint256"
        }
      ],
      "name": "candidates",
      "outputs": [
        {
          "internalType": "address",
          "name": "candidateAddress",
          "type": "address"
        },
        {
          "internalType": "uint256",
          "name": "candidateId",
          "type": "uint256"
        },
        {
          "internalType": "string",
          "name": "name",
          "type": "string"
        },
        {
          "internalType": "string",
          "name": "slogan",
          "type": "string"
        },
        {
          "internalType": "uint256",
          "name": "voteCount",
          "type": "uint256"
        }
      ],
      "stateMutability": "view",
      "type": "function"
    },
    {
      "inputs": [],
      "name": "chairman",
      "outputs": [
        {
          "internalType": "address",
          "name": "",
          "type": "address"
        }
      ],
      "stateMutability": "view",
      "type": "function"
    },
    {
      "inputs": [],
      "name": "compileResult",
      "outputs": [
        {
          "internalType": "string",
          "name": "",
          "type": "string"
        }
      ],
      "stateMutability": "view",
      "type": "function"
    },
    {
      "inputs": [],
      "name": "electionDetails",
      "outputs": [
        {
          "internalType": "string",
          "name": "name",
          "type": "string"
        },
        {
          "internalType": "string",
          "name": "electivePosition",
          "type": "string"
        }
      ],
      "stateMutability": "view",
      "type": "function"
    },
    {
      "inputs": [],
      "name": "endElection",
      "outputs": [],
      "stateMutability": "nonpayable",
      "type": "function"
    },
    {
      "inputs": [
        {
          "internalType": "address",
          "name": "addr",
          "type": "address"
        },
        {
          "internalType": "address[]",
          "name": "_array",
          "type": "address[]"
        }
      ],
      "name": "find",
      "outputs": [
        {
          "internalType": "uint256",
          "name": "",
          "type": "uint256"
        }
      ],
      "stateMutability": "pure",
      "type": "function"
    },
    {
      "inputs": [],
      "name": "getElectionPosition",
      "outputs": [
        {
          "internalType": "string",
          "name": "",
          "type": "string"
        }
      ],
      "stateMutability": "view",
      "type": "function"
    },
    {
      "inputs": [],
      "name": "getElectionTitle",
      "outputs": [
        {
          "internalType": "string",
          "name": "",
          "type": "string"
        }
      ],
      "stateMutability": "view",
      "type": "function"
    },
    {
      "inputs": [],
      "name": "getTotalCandidate",
      "outputs": [
        {
          "internalType": "uint256",
          "name": "",
          "type": "uint256"
        }
      ],
      "stateMutability": "view",
      "type": "function"
    },
    {
      "inputs": [],
      "name": "getTotalVoter",
      "outputs": [
        {
          "internalType": "uint256",
          "name": "",
          "type": "uint256"
        }
      ],
      "stateMutability": "view",
      "type": "function"
    },
    {
      "inputs": [
        {
          "internalType": "address",
          "name": "",
          "type": "address"
        }
      ],
      "name": "hasVoted",
      "outputs": [
        {
          "internalType": "bool",
          "name": "",
          "type": "bool"
        }
      ],
      "stateMutability": "view",
      "type": "function"
    },
    {
      "inputs": [
        {
          "internalType": "address",
          "name": "",
          "type": "address"
        }
      ],
      "name": "isBODMember",
      "outputs": [
        {
          "internalType": "bool",
          "name": "",
          "type": "bool"
        }
      ],
      "stateMutability": "view",
      "type": "function"
    },
    {
      "inputs": [
        {
          "internalType": "address",
          "name": "",
          "type": "address"
        }
      ],
      "name": "isStakeHolder",
      "outputs": [
        {
          "internalType": "bool",
          "name": "",
          "type": "bool"
        }
      ],
      "stateMutability": "view",
      "type": "function"
    },
    {
      "inputs": [
        {
          "internalType": "address",
          "name": "",
          "type": "address"
        }
      ],
      "name": "isStudent",
      "outputs": [
        {
          "internalType": "bool",
          "name": "",
          "type": "bool"
        }
      ],
      "stateMutability": "view",
      "type": "function"
    },
    {
      "inputs": [
        {
          "internalType": "address",
          "name": "",
          "type": "address"
        }
      ],
      "name": "isTeacher",
      "outputs": [
        {
          "internalType": "bool",
          "name": "",
          "type": "bool"
        }
      ],
      "stateMutability": "view",
      "type": "function"
    },
    {
      "inputs": [],
      "name": "owner",
      "outputs": [
        {
          "internalType": "address",
          "name": "",
          "type": "address"
        }
      ],
      "stateMutability": "view",
      "type": "function"
    },
    {
      "inputs": [
        {
          "internalType": "address[]",
          "name": "_BOD",
          "type": "address[]"
        }
      ],
      "name": "removeBOD",
      "outputs": [],
      "stateMutability": "nonpayable",
      "type": "function"
    },
    {
      "inputs": [
        {
          "internalType": "address[]",
          "name": "_students",
          "type": "address[]"
        }
      ],
      "name": "removeStudent",
      "outputs": [],
      "stateMutability": "nonpayable",
      "type": "function"
    },
    {
      "inputs": [
        {
          "internalType": "address[]",
          "name": "_teachers",
          "type": "address[]"
        }
      ],
      "name": "removeTeacher",
      "outputs": [],
      "stateMutability": "nonpayable",
      "type": "function"
    },
    {
      "inputs": [],
      "name": "renounceOwnership",
      "outputs": [],
      "stateMutability": "nonpayable",
      "type": "function"
    },
    {
      "inputs": [
        {
          "internalType": "address[]",
          "name": "_BOD",
          "type": "address[]"
        }
      ],
      "name": "setBOD",
      "outputs": [],
      "stateMutability": "nonpayable",
      "type": "function"
    },
    {
      "inputs": [
        {
          "internalType": "address",
          "name": "_chairman",
          "type": "address"
        }
      ],
      "name": "setChairman",
      "outputs": [],
      "stateMutability": "nonpayable",
      "type": "function"
    },
    {
      "inputs": [
        {
          "internalType": "string",
          "name": "_name",
          "type": "string"
        },
        {
          "internalType": "string",
          "name": "_electivePosition",
          "type": "string"
        }
      ],
      "name": "setElectionDetails",
      "outputs": [],
      "stateMutability": "nonpayable",
      "type": "function"
    },
    {
      "inputs": [
        {
          "internalType": "address[]",
          "name": "_students",
          "type": "address[]"
        }
      ],
      "name": "setStudent",
      "outputs": [],
      "stateMutability": "nonpayable",
      "type": "function"
    },
    {
      "inputs": [
        {
          "internalType": "address[]",
          "name": "_teachers",
          "type": "address[]"
        }
      ],
      "name": "setTeacher",
      "outputs": [],
      "stateMutability": "nonpayable",
      "type": "function"
    },
    {
      "inputs": [
        {
          "internalType": "uint256",
          "name": "",
          "type": "uint256"
        }
      ],
      "name": "stakeholders",
      "outputs": [
        {
          "internalType": "address",
          "name": "",
          "type": "address"
        }
      ],
      "stateMutability": "view",
      "type": "function"
    },
    {
      "inputs": [],
      "name": "startElection",
      "outputs": [],
      "stateMutability": "nonpayable",
      "type": "function"
    },
    {
      "inputs": [
        {
          "internalType": "uint256",
          "name": "",
          "type": "uint256"
        }
      ],
      "name": "students",
      "outputs": [
        {
          "internalType": "address",
          "name": "",
          "type": "address"
        }
      ],
      "stateMutability": "view",
      "type": "function"
    },
    {
      "inputs": [
        {
          "internalType": "uint256",
          "name": "",
          "type": "uint256"
        }
      ],
      "name": "teachers",
      "outputs": [
        {
          "internalType": "address",
          "name": "",
          "type": "address"
        }
      ],
      "stateMutability": "view",
      "type": "function"
    },
    {
      "inputs": [
        {
          "internalType": "address",
          "name": "newOwner",
          "type": "address"
        }
      ],
      "name": "transferOwnership",
      "outputs": [],
      "stateMutability": "nonpayable",
      "type": "function"
    },
    {
      "inputs": [
        {
          "internalType": "uint256",
          "name": "candidateId",
          "type": "uint256"
        }
      ],
      "name": "vote",
      "outputs": [],
      "stateMutability": "nonpayable",
      "type": "function"
    }
  ],
  "bytecode": "0x60806040523480156200001157600080fd5b5062000032620000266200003860201b60201c565b6200004060201b60201c565b62000104565b600033905090565b60008060009054906101000a900473ffffffffffffffffffffffffffffffffffffffff169050816000806101000a81548173ffffffffffffffffffffffffffffffffffffffff021916908373ffffffffffffffffffffffffffffffffffffffff1602179055508173ffffffffffffffffffffffffffffffffffffffff168173ffffffffffffffffffffffffffffffffffffffff167f8be0079c531659141344cd1fd0a4f28419497f9722a3daafe3b4186f6b6457e060405160405180910390a35050565b61547e80620001146000396000f3fe608060405234801561001057600080fd5b50600436106102275760003560e01c8063715018a61161013057806397929c63116100b8578063a9a3eea71161007c578063a9a3eea714610633578063aec37eb31461064f578063e173730c1461067f578063e22a62311461069d578063f2fde38b146106b957610227565b806397929c63146105a5578063a03d786c146105c1578063a447ebc1146105cb578063a7b49529146105fb578063a81b6f691461061757610227565b80638668dfc9116100ff5780638668dfc91461050157806387f7b9751461051d5780638da5cb5b1461053b57806393c1d4c814610559578063961ebb231461058957610227565b8063715018a61461048d5780637761de75146104975780637e5ea48f146104b557806382f7d392146104d157610227565b806334ac0b40116101b35780636247e532116101825780636247e532146103e257806362d73eb814610416578063635121591461042057806364d198a1146104505780636d2f69661461046e57610227565b806334ac0b401461036e578063531cbb121461039e57806355ea5577146103bc57806359f78468146103d857610227565b80631c8108b1116101fa5780631c8108b1146102c65780631d6b8b72146102d057806320d67e811461030057806321b21434146103305780633477ee2e1461033a57610227565b80630121b93f1461022c57806306ead22e1461024857806309eef43e146102785780630b93400e146102a8575b600080fd5b6102466004803603810190610241919061478c565b6106d5565b005b610262600480360381019061025d919061478c565b610943565b60405161026f9190614a8a565b60405180910390f35b610292600480360381019061028d91906145e3565b610982565b60405161029f9190614b28565b60405180910390f35b6102b06109a2565b6040516102bd9190614d5c565b60405180910390f35b6102ce6109ac565b005b6102ea60048036038101906102e5919061478c565b610a45565b6040516102f79190614a8a565b60405180910390f35b61031a600480360381019061031591906145e3565b610a84565b6040516103279190614b28565b60405180910390f35b610338610aa4565b005b610354600480360381019061034f919061478c565b610b3d565b604051610365959493929190614aa5565b60405180910390f35b6103886004803603810190610383919061478c565b610cb3565b6040516103959190614a8a565b60405180910390f35b6103a6610cf2565b6040516103b39190614b43565b60405180910390f35b6103d660048036038101906103d191906146df565b61109c565b005b6103e0611534565b005b6103fc60048036038101906103f7919061478c565b6115e1565b60405161040d959493929190614aa5565b60405180910390f35b61041e611747565b005b61043a600480360381019061043591906145e3565b6117f4565b6040516104479190614b28565b60405180910390f35b610458611814565b6040516104659190614d5c565b60405180910390f35b61047661181e565b604051610484929190614b65565b60405180910390f35b610495611940565b005b61049f6119c8565b6040516104ac9190614b43565b60405180910390f35b6104cf60048036038101906104ca91906146df565b611a5d565b005b6104eb60048036038101906104e691906145e3565b612186565b6040516104f89190614b28565b60405180910390f35b61051b600480360381019061051691906146df565b6121a6565b005b6105256128cf565b6040516105329190614a8a565b60405180910390f35b6105436128f5565b6040516105509190614a8a565b60405180910390f35b610573600480360381019061056e919061460c565b61291e565b6040516105809190614d5c565b60405180910390f35b6105a3600480360381019061059e91906146df565b6129b6565b005b6105bf60048036038101906105ba9190614720565b612e4e565b005b6105c9613034565b005b6105e560048036038101906105e0919061478c565b613137565b6040516105f29190614a8a565b60405180910390f35b610615600480360381019061061091906145e3565b613176565b005b610631600480360381019061062c91906146df565b613236565b005b61064d600480360381019061064891906146df565b6136ce565b005b610669600480360381019061066491906145e3565b613df7565b6040516106769190614b28565b60405180910390f35b610687613e17565b6040516106949190614b43565b60405180910390f35b6106b760048036038101906106b29190614660565b613eac565b005b6106d360048036038101906106ce91906145e3565b61420f565b005b600f60003373ffffffffffffffffffffffffffffffffffffffff1673ffffffffffffffffffffffffffffffffffffffff16815260200190815260200160002060009054906101000a900460ff16610761576040517f08c379a000000000000000000000000000000000000000000000000000000000815260040161075890614bdc565b60405180910390fd5b600960009054906101000a900460ff166107b0576040517f08c379a00000000000000000000000000000000000000000000000000000000081526004016107a790614c7c565b60405180910390fd5b60001515601060003373ffffffffffffffffffffffffffffffffffffffff1673ffffffffffffffffffffffffffffffffffffffff16815260200190815260200160002060009054906101000a900460ff16151514610843576040517f08c379a000000000000000000000000000000000000000000000000000000000815260040161083a90614d1c565b60405180910390fd5b6001601060003373ffffffffffffffffffffffffffffffffffffffff1673ffffffffffffffffffffffffffffffffffffffff16815260200190815260200160002060006101000a81548160ff0219169083151502179055506011600082815260200190815260200160002060040160008154809291906108c290614fc5565b919050555060068181548110610901577f4e487b7100000000000000000000000000000000000000000000000000000000600052603260045260246000fd5b9060005260206000209060050201600401600081548092919061092390614fc5565b91905055506008600081548092919061093b90614fc5565b919050555050565b6004818154811061095357600080fd5b906000526020600020016000915054906101000a900473ffffffffffffffffffffffffffffffffffffffff1681565b60106020528060005260406000206000915054906101000a900460ff1681565b6000600854905090565b6109b4614307565b73ffffffffffffffffffffffffffffffffffffffff166109d26128f5565b73ffffffffffffffffffffffffffffffffffffffff1614610a28576040517f08c379a0000000000000000000000000000000000000000000000000000000008152600401610a1f90614c9c565b60405180910390fd5b6001600960026101000a81548160ff021916908315150217905550565b60058181548110610a5557600080fd5b906000526020600020016000915054906101000a900473ffffffffffffffffffffffffffffffffffffffff1681565b600d6020528060005260406000206000915054906101000a900460ff1681565b610aac614307565b73ffffffffffffffffffffffffffffffffffffffff16610aca6128f5565b73ffffffffffffffffffffffffffffffffffffffff1614610b20576040517f08c379a0000000000000000000000000000000000000000000000000000000008152600401610b1790614c9c565b60405180910390fd5b6000600960026101000a81548160ff021916908315150217905550565b60068181548110610b4d57600080fd5b90600052602060002090600502016000915090508060000160009054906101000a900473ffffffffffffffffffffffffffffffffffffffff1690806001015490806002018054610b9c90614f62565b80601f0160208091040260200160405190810160405280929190818152602001828054610bc890614f62565b8015610c155780601f10610bea57610100808354040283529160200191610c15565b820191906000526020600020905b815481529060010190602001808311610bf857829003601f168201915b505050505090806003018054610c2a90614f62565b80601f0160208091040260200160405190810160405280929190818152602001828054610c5690614f62565b8015610ca35780601f10610c7857610100808354040283529160200191610ca3565b820191906000526020600020905b815481529060010190602001808311610c8657829003601f168201915b5050505050908060040154905085565b60028181548110610cc357600080fd5b906000526020600020016000915054906101000a900473ffffffffffffffffffffffffffffffffffffffff1681565b6060600160009054906101000a900473ffffffffffffffffffffffffffffffffffffffff1673ffffffffffffffffffffffffffffffffffffffff163373ffffffffffffffffffffffffffffffffffffffff161480610d995750600d60003373ffffffffffffffffffffffffffffffffffffffff1673ffffffffffffffffffffffffffffffffffffffff16815260200190815260200160002060009054906101000a900460ff165b80610ded5750600c60003373ffffffffffffffffffffffffffffffffffffffff1673ffffffffffffffffffffffffffffffffffffffff16815260200190815260200160002060009054906101000a900460ff165b610e2c576040517f08c379a0000000000000000000000000000000000000000000000000000000008152600401610e2390614c3c565b60405180910390fd5b610e346143d3565b6000805b60068054905081101561108f578160068281548110610e80577f4e487b7100000000000000000000000000000000000000000000000000000000600052603260045260246000fd5b906000526020600020906005020160040154111561107c5760068181548110610ed2577f4e487b7100000000000000000000000000000000000000000000000000000000600052603260045260246000fd5b90600052602060002090600502016040518060a00160405290816000820160009054906101000a900473ffffffffffffffffffffffffffffffffffffffff1673ffffffffffffffffffffffffffffffffffffffff1673ffffffffffffffffffffffffffffffffffffffff16815260200160018201548152602001600282018054610f5b90614f62565b80601f0160208091040260200160405190810160405280929190818152602001828054610f8790614f62565b8015610fd45780601f10610fa957610100808354040283529160200191610fd4565b820191906000526020600020905b815481529060010190602001808311610fb757829003601f168201915b50505050508152602001600382018054610fed90614f62565b80601f016020809104026020016040519081016040528092919081815260200182805461101990614f62565b80156110665780601f1061103b57610100808354040283529160200191611066565b820191906000526020600020905b81548152906001019060200180831161104957829003601f168201915b5050505050815260200160048201548152505092505b808061108790614fc5565b915050610e38565b5081604001519250505090565b600160009054906101000a900473ffffffffffffffffffffffffffffffffffffffff1673ffffffffffffffffffffffffffffffffffffffff163373ffffffffffffffffffffffffffffffffffffffff161461112c576040517f08c379a000000000000000000000000000000000000000000000000000000000815260040161112390614c1c565b60405180910390fd5b60001515600960029054906101000a900460ff16151514611182576040517f08c379a000000000000000000000000000000000000000000000000000000000815260040161117990614cbc565b60405180910390fd5b6032815111156111c7576040517f08c379a00000000000000000000000000000000000000000000000000000000081526004016111be90614c5c565b60405180910390fd5b60005b81518110156114f95760001515600d6000848481518110611214577f4e487b7100000000000000000000000000000000000000000000000000000000600052603260045260246000fd5b602002602001015173ffffffffffffffffffffffffffffffffffffffff1673ffffffffffffffffffffffffffffffffffffffff16815260200190815260200160002060009054906101000a900460ff1615151461127057600080fd5b60038282815181106112ab577f4e487b7100000000000000000000000000000000000000000000000000000000600052603260045260246000fd5b60200260200101519080600181540180825580915050600190039060005260206000200160009091909190916101000a81548173ffffffffffffffffffffffffffffffffffffffff021916908373ffffffffffffffffffffffffffffffffffffffff160217905550600582828151811061134e577f4e487b7100000000000000000000000000000000000000000000000000000000600052603260045260246000fd5b60200260200101519080600181540180825580915050600190039060005260206000200160009091909190916101000a81548173ffffffffffffffffffffffffffffffffffffffff021916908373ffffffffffffffffffffffffffffffffffffffff1602179055506001600d60008484815181106113f5577f4e487b7100000000000000000000000000000000000000000000000000000000600052603260045260246000fd5b602002602001015173ffffffffffffffffffffffffffffffffffffffff1673ffffffffffffffffffffffffffffffffffffffff16815260200190815260200160002060006101000a81548160ff0219169083151502179055506001600f600084848151811061148d577f4e487b7100000000000000000000000000000000000000000000000000000000600052603260045260246000fd5b602002602001015173ffffffffffffffffffffffffffffffffffffffff1673ffffffffffffffffffffffffffffffffffffffff16815260200190815260200160002060006101000a81548160ff02191690831515021790555080806114f190614fc5565b9150506111ca565b507f8769982c70c7577e44a1c7dce9da8628ebf7feb589baff3c4979cbb2427a0c31816040516115299190614b06565b60405180910390a150565b600160009054906101000a900473ffffffffffffffffffffffffffffffffffffffff1673ffffffffffffffffffffffffffffffffffffffff163373ffffffffffffffffffffffffffffffffffffffff16146115c4576040517f08c379a00000000000000000000000000000000000000000000000000000000081526004016115bb90614c1c565b60405180910390fd5b6000600960006101000a81548160ff021916908315150217905550565b60116020528060005260406000206000915090508060000160009054906101000a900473ffffffffffffffffffffffffffffffffffffffff169080600101549080600201805461163090614f62565b80601f016020809104026020016040519081016040528092919081815260200182805461165c90614f62565b80156116a95780601f1061167e576101008083540402835291602001916116a9565b820191906000526020600020905b81548152906001019060200180831161168c57829003601f168201915b5050505050908060030180546116be90614f62565b80601f01602080910402602001604051908101604052809291908181526020018280546116ea90614f62565b80156117375780601f1061170c57610100808354040283529160200191611737565b820191906000526020600020905b81548152906001019060200180831161171a57829003601f168201915b5050505050908060040154905085565b600160009054906101000a900473ffffffffffffffffffffffffffffffffffffffff1673ffffffffffffffffffffffffffffffffffffffff163373ffffffffffffffffffffffffffffffffffffffff16146117d7576040517f08c379a00000000000000000000000000000000000000000000000000000000081526004016117ce90614c1c565b60405180910390fd5b6001600960006101000a81548160ff021916908315150217905550565b600f6020528060005260406000206000915054906101000a900460ff1681565b6000600754905090565b600a80600001805461182f90614f62565b80601f016020809104026020016040519081016040528092919081815260200182805461185b90614f62565b80156118a85780601f1061187d576101008083540402835291602001916118a8565b820191906000526020600020905b81548152906001019060200180831161188b57829003601f168201915b5050505050908060010180546118bd90614f62565b80601f01602080910402602001604051908101604052809291908181526020018280546118e990614f62565b80156119365780601f1061190b57610100808354040283529160200191611936565b820191906000526020600020905b81548152906001019060200180831161191957829003601f168201915b5050505050905082565b611948614307565b73ffffffffffffffffffffffffffffffffffffffff166119666128f5565b73ffffffffffffffffffffffffffffffffffffffff16146119bc576040517f08c379a00000000000000000000000000000000000000000000000000000000081526004016119b390614c9c565b60405180910390fd5b6119c6600061430f565b565b6060600a60010180546119da90614f62565b80601f0160208091040260200160405190810160405280929190818152602001828054611a0690614f62565b8015611a535780601f10611a2857610100808354040283529160200191611a53565b820191906000526020600020905b815481529060010190602001808311611a3657829003601f168201915b5050505050905090565b600160009054906101000a900473ffffffffffffffffffffffffffffffffffffffff1673ffffffffffffffffffffffffffffffffffffffff163373ffffffffffffffffffffffffffffffffffffffff1614611aed576040517f08c379a0000000000000000000000000000000000000000000000000000000008152600401611ae490614c1c565b60405180910390fd5b60001515600960029054906101000a900460ff16151514611b43576040517f08c379a0000000000000000000000000000000000000000000000000000000008152600401611b3a90614cbc565b60405180910390fd5b603281511115611b88576040517f08c379a0000000000000000000000000000000000000000000000000000000008152600401611b7f90614b9c565b60405180910390fd5b60005b815181101561214b576000611c66838381518110611bd2577f4e487b7100000000000000000000000000000000000000000000000000000000600052603260045260246000fd5b60200260200101516004805480602002602001604051908101604052809291908181526020018280548015611c5c57602002820191906000526020600020905b8160009054906101000a900473ffffffffffffffffffffffffffffffffffffffff1673ffffffffffffffffffffffffffffffffffffffff1681526020019060010190808311611c12575b505050505061291e565b905060046001600480549050611c7c9190614ea4565b81548110611cb3577f4e487b7100000000000000000000000000000000000000000000000000000000600052603260045260246000fd5b9060005260206000200160009054906101000a900473ffffffffffffffffffffffffffffffffffffffff1660048281548110611d18577f4e487b7100000000000000000000000000000000000000000000000000000000600052603260045260246000fd5b9060005260206000200160006101000a81548173ffffffffffffffffffffffffffffffffffffffff021916908373ffffffffffffffffffffffffffffffffffffffff1602179055506004805480611d98577f4e487b7100000000000000000000000000000000000000000000000000000000600052603160045260246000fd5b6001900381819060005260206000200160006101000a81549073ffffffffffffffffffffffffffffffffffffffff021916905590556000611e9f848481518110611e0b577f4e487b7100000000000000000000000000000000000000000000000000000000600052603260045260246000fd5b60200260200101516005805480602002602001604051908101604052809291908181526020018280548015611e9557602002820191906000526020600020905b8160009054906101000a900473ffffffffffffffffffffffffffffffffffffffff1673ffffffffffffffffffffffffffffffffffffffff1681526020019060010190808311611e4b575b505050505061291e565b905060056001600580549050611eb59190614ea4565b81548110611eec577f4e487b7100000000000000000000000000000000000000000000000000000000600052603260045260246000fd5b9060005260206000200160009054906101000a900473ffffffffffffffffffffffffffffffffffffffff1660058281548110611f51577f4e487b7100000000000000000000000000000000000000000000000000000000600052603260045260246000fd5b9060005260206000200160006101000a81548173ffffffffffffffffffffffffffffffffffffffff021916908373ffffffffffffffffffffffffffffffffffffffff1602179055506005805480611fd1577f4e487b7100000000000000000000000000000000000000000000000000000000600052603160045260246000fd5b6001900381819060005260206000200160006101000a81549073ffffffffffffffffffffffffffffffffffffffff021916905590556000600e6000868681518110612045577f4e487b7100000000000000000000000000000000000000000000000000000000600052603260045260246000fd5b602002602001015173ffffffffffffffffffffffffffffffffffffffff1673ffffffffffffffffffffffffffffffffffffffff16815260200190815260200160002060006101000a81548160ff0219169083151502179055506000600f60008686815181106120dd577f4e487b7100000000000000000000000000000000000000000000000000000000600052603260045260246000fd5b602002602001015173ffffffffffffffffffffffffffffffffffffffff1673ffffffffffffffffffffffffffffffffffffffff16815260200190815260200160002060006101000a81548160ff0219169083151502179055505050808061214390614fc5565b915050611b8b565b507faacc6dfa92cfb8bfae12e064b6a99315ed313cd86d20ab1336cc0fc13eac3f458160405161217b9190614b06565b60405180910390a150565b600e6020528060005260406000206000915054906101000a900460ff1681565b600160009054906101000a900473ffffffffffffffffffffffffffffffffffffffff1673ffffffffffffffffffffffffffffffffffffffff163373ffffffffffffffffffffffffffffffffffffffff1614612236576040517f08c379a000000000000000000000000000000000000000000000000000000000815260040161222d90614c1c565b60405180910390fd5b60001515600960029054906101000a900460ff1615151461228c576040517f08c379a000000000000000000000000000000000000000000000000000000000815260040161228390614cbc565b60405180910390fd5b6032815111156122d1576040517f08c379a00000000000000000000000000000000000000000000000000000000081526004016122c890614cdc565b60405180910390fd5b60005b81518110156128945760006123af83838151811061231b577f4e487b7100000000000000000000000000000000000000000000000000000000600052603260045260246000fd5b602002602001015160038054806020026020016040519081016040528092919081815260200182805480156123a557602002820191906000526020600020905b8160009054906101000a900473ffffffffffffffffffffffffffffffffffffffff1673ffffffffffffffffffffffffffffffffffffffff168152602001906001019080831161235b575b505050505061291e565b9050600360016003805490506123c59190614ea4565b815481106123fc577f4e487b7100000000000000000000000000000000000000000000000000000000600052603260045260246000fd5b9060005260206000200160009054906101000a900473ffffffffffffffffffffffffffffffffffffffff1660038281548110612461577f4e487b7100000000000000000000000000000000000000000000000000000000600052603260045260246000fd5b9060005260206000200160006101000a81548173ffffffffffffffffffffffffffffffffffffffff021916908373ffffffffffffffffffffffffffffffffffffffff16021790555060038054806124e1577f4e487b7100000000000000000000000000000000000000000000000000000000600052603160045260246000fd5b6001900381819060005260206000200160006101000a81549073ffffffffffffffffffffffffffffffffffffffff0219169055905560006125e8848481518110612554577f4e487b7100000000000000000000000000000000000000000000000000000000600052603260045260246000fd5b602002602001015160058054806020026020016040519081016040528092919081815260200182805480156125de57602002820191906000526020600020905b8160009054906101000a900473ffffffffffffffffffffffffffffffffffffffff1673ffffffffffffffffffffffffffffffffffffffff1681526020019060010190808311612594575b505050505061291e565b9050600560016005805490506125fe9190614ea4565b81548110612635577f4e487b7100000000000000000000000000000000000000000000000000000000600052603260045260246000fd5b9060005260206000200160009054906101000a900473ffffffffffffffffffffffffffffffffffffffff166005828154811061269a577f4e487b7100000000000000000000000000000000000000000000000000000000600052603260045260246000fd5b9060005260206000200160006101000a81548173ffffffffffffffffffffffffffffffffffffffff021916908373ffffffffffffffffffffffffffffffffffffffff160217905550600580548061271a577f4e487b7100000000000000000000000000000000000000000000000000000000600052603160045260246000fd5b6001900381819060005260206000200160006101000a81549073ffffffffffffffffffffffffffffffffffffffff021916905590556000600d600086868151811061278e577f4e487b7100000000000000000000000000000000000000000000000000000000600052603260045260246000fd5b602002602001015173ffffffffffffffffffffffffffffffffffffffff1673ffffffffffffffffffffffffffffffffffffffff16815260200190815260200160002060006101000a81548160ff0219169083151502179055506000600f6000868681518110612826577f4e487b7100000000000000000000000000000000000000000000000000000000600052603260045260246000fd5b602002602001015173ffffffffffffffffffffffffffffffffffffffff1673ffffffffffffffffffffffffffffffffffffffff16815260200190815260200160002060006101000a81548160ff0219169083151502179055505050808061288c90614fc5565b9150506122d4565b507f021825f4240ebfca26f3f23a3d2aba64d30d6d490b35989792c561eeb83dacae816040516128c49190614b06565b60405180910390a150565b600160009054906101000a900473ffffffffffffffffffffffffffffffffffffffff1681565b60008060009054906101000a900473ffffffffffffffffffffffffffffffffffffffff16905090565b600080600090505b8373ffffffffffffffffffffffffffffffffffffffff16838281518110612976577f4e487b7100000000000000000000000000000000000000000000000000000000600052603260045260246000fd5b602002602001015173ffffffffffffffffffffffffffffffffffffffff16146129ac5780806129a490614fc5565b915050612926565b8091505092915050565b600160009054906101000a900473ffffffffffffffffffffffffffffffffffffffff1673ffffffffffffffffffffffffffffffffffffffff163373ffffffffffffffffffffffffffffffffffffffff1614612a46576040517f08c379a0000000000000000000000000000000000000000000000000000000008152600401612a3d90614c1c565b60405180910390fd5b60001515600960029054906101000a900460ff16151514612a9c576040517f08c379a0000000000000000000000000000000000000000000000000000000008152600401612a9390614cbc565b60405180910390fd5b603281511115612ae1576040517f08c379a0000000000000000000000000000000000000000000000000000000008152600401612ad890614d3c565b60405180910390fd5b60005b8151811015612e135760001515600c6000848481518110612b2e577f4e487b7100000000000000000000000000000000000000000000000000000000600052603260045260246000fd5b602002602001015173ffffffffffffffffffffffffffffffffffffffff1673ffffffffffffffffffffffffffffffffffffffff16815260200190815260200160002060009054906101000a900460ff16151514612b8a57600080fd5b6002828281518110612bc5577f4e487b7100000000000000000000000000000000000000000000000000000000600052603260045260246000fd5b60200260200101519080600181540180825580915050600190039060005260206000200160009091909190916101000a81548173ffffffffffffffffffffffffffffffffffffffff021916908373ffffffffffffffffffffffffffffffffffffffff1602179055506005828281518110612c68577f4e487b7100000000000000000000000000000000000000000000000000000000600052603260045260246000fd5b60200260200101519080600181540180825580915050600190039060005260206000200160009091909190916101000a81548173ffffffffffffffffffffffffffffffffffffffff021916908373ffffffffffffffffffffffffffffffffffffffff1602179055506001600c6000848481518110612d0f577f4e487b7100000000000000000000000000000000000000000000000000000000600052603260045260246000fd5b602002602001015173ffffffffffffffffffffffffffffffffffffffff1673ffffffffffffffffffffffffffffffffffffffff16815260200190815260200160002060006101000a81548160ff0219169083151502179055506001600f6000848481518110612da7577f4e487b7100000000000000000000000000000000000000000000000000000000600052603260045260246000fd5b602002602001015173ffffffffffffffffffffffffffffffffffffffff1673ffffffffffffffffffffffffffffffffffffffff16815260200190815260200160002060006101000a81548160ff0219169083151502179055508080612e0b90614fc5565b915050612ae4565b507f38491476905aafb6d367121b3596d6d694ae0d5a02dbfe093843a7c08ae7d43181604051612e439190614b06565b60405180910390a150565b600160009054906101000a900473ffffffffffffffffffffffffffffffffffffffff1673ffffffffffffffffffffffffffffffffffffffff163373ffffffffffffffffffffffffffffffffffffffff161480612ef35750600d60003373ffffffffffffffffffffffffffffffffffffffff1673ffffffffffffffffffffffffffffffffffffffff16815260200190815260200160002060009054906101000a900460ff165b80612f475750600c60003373ffffffffffffffffffffffffffffffffffffffff1673ffffffffffffffffffffffffffffffffffffffff16815260200190815260200160002060009054906101000a900460ff165b612f86576040517f08c379a0000000000000000000000000000000000000000000000000000000008152600401612f7d90614c3c565b60405180910390fd5b60001515600960029054906101000a900460ff16151514612fdc576040517f08c379a0000000000000000000000000000000000000000000000000000000008152600401612fd390614cbc565b60405180910390fd5b604051806040016040528083815260200182815250600a600082015181600001908051906020019061300f929190614418565b50602082015181600101908051906020019061302c929190614418565b509050505050565b600160009054906101000a900473ffffffffffffffffffffffffffffffffffffffff1673ffffffffffffffffffffffffffffffffffffffff163373ffffffffffffffffffffffffffffffffffffffff16146130c4576040517f08c379a00000000000000000000000000000000000000000000000000000000081526004016130bb90614c1c565b60405180910390fd5b60001515600960029054906101000a900460ff1615151461311a576040517f08c379a000000000000000000000000000000000000000000000000000000000815260040161311190614cbc565b60405180910390fd5b6001600960016101000a81548160ff021916908315150217905550565b6003818154811061314757600080fd5b906000526020600020016000915054906101000a900473ffffffffffffffffffffffffffffffffffffffff1681565b61317e614307565b73ffffffffffffffffffffffffffffffffffffffff1661319c6128f5565b73ffffffffffffffffffffffffffffffffffffffff16146131f2576040517f08c379a00000000000000000000000000000000000000000000000000000000081526004016131e990614c9c565b60405180910390fd5b80600160006101000a81548173ffffffffffffffffffffffffffffffffffffffff021916908373ffffffffffffffffffffffffffffffffffffffff16021790555050565b600160009054906101000a900473ffffffffffffffffffffffffffffffffffffffff1673ffffffffffffffffffffffffffffffffffffffff163373ffffffffffffffffffffffffffffffffffffffff16146132c6576040517f08c379a00000000000000000000000000000000000000000000000000000000081526004016132bd90614c1c565b60405180910390fd5b60001515600960029054906101000a900460ff1615151461331c576040517f08c379a000000000000000000000000000000000000000000000000000000000815260040161331390614cbc565b60405180910390fd5b603281511115613361576040517f08c379a000000000000000000000000000000000000000000000000000000000815260040161335890614bfc565b60405180910390fd5b60005b81518110156136935760001515600e60008484815181106133ae577f4e487b7100000000000000000000000000000000000000000000000000000000600052603260045260246000fd5b602002602001015173ffffffffffffffffffffffffffffffffffffffff1673ffffffffffffffffffffffffffffffffffffffff16815260200190815260200160002060009054906101000a900460ff1615151461340a57600080fd5b6004828281518110613445577f4e487b7100000000000000000000000000000000000000000000000000000000600052603260045260246000fd5b60200260200101519080600181540180825580915050600190039060005260206000200160009091909190916101000a81548173ffffffffffffffffffffffffffffffffffffffff021916908373ffffffffffffffffffffffffffffffffffffffff16021790555060058282815181106134e8577f4e487b7100000000000000000000000000000000000000000000000000000000600052603260045260246000fd5b60200260200101519080600181540180825580915050600190039060005260206000200160009091909190916101000a81548173ffffffffffffffffffffffffffffffffffffffff021916908373ffffffffffffffffffffffffffffffffffffffff1602179055506001600e600084848151811061358f577f4e487b7100000000000000000000000000000000000000000000000000000000600052603260045260246000fd5b602002602001015173ffffffffffffffffffffffffffffffffffffffff1673ffffffffffffffffffffffffffffffffffffffff16815260200190815260200160002060006101000a81548160ff0219169083151502179055506001600f6000848481518110613627577f4e487b7100000000000000000000000000000000000000000000000000000000600052603260045260246000fd5b602002602001015173ffffffffffffffffffffffffffffffffffffffff1673ffffffffffffffffffffffffffffffffffffffff16815260200190815260200160002060006101000a81548160ff021916908315150217905550808061368b90614fc5565b915050613364565b507f8113926547cd404df92b603f19e0d4f68b9d47fba7b348acbe49a4fe87f07066816040516136c39190614b06565b60405180910390a150565b600160009054906101000a900473ffffffffffffffffffffffffffffffffffffffff1673ffffffffffffffffffffffffffffffffffffffff163373ffffffffffffffffffffffffffffffffffffffff161461375e576040517f08c379a000000000000000000000000000000000000000000000000000000000815260040161375590614c1c565b60405180910390fd5b60001515600960029054906101000a900460ff161515146137b4576040517f08c379a00000000000000000000000000000000000000000000000000000000081526004016137ab90614cbc565b60405180910390fd5b6032815111156137f9576040517f08c379a00000000000000000000000000000000000000000000000000000000081526004016137f090614cfc565b60405180910390fd5b60005b8151811015613dbc5760006138d7838381518110613843577f4e487b7100000000000000000000000000000000000000000000000000000000600052603260045260246000fd5b602002602001015160028054806020026020016040519081016040528092919081815260200182805480156138cd57602002820191906000526020600020905b8160009054906101000a900473ffffffffffffffffffffffffffffffffffffffff1673ffffffffffffffffffffffffffffffffffffffff1681526020019060010190808311613883575b505050505061291e565b9050600260016002805490506138ed9190614ea4565b81548110613924577f4e487b7100000000000000000000000000000000000000000000000000000000600052603260045260246000fd5b9060005260206000200160009054906101000a900473ffffffffffffffffffffffffffffffffffffffff1660028281548110613989577f4e487b7100000000000000000000000000000000000000000000000000000000600052603260045260246000fd5b9060005260206000200160006101000a81548173ffffffffffffffffffffffffffffffffffffffff021916908373ffffffffffffffffffffffffffffffffffffffff1602179055506002805480613a09577f4e487b7100000000000000000000000000000000000000000000000000000000600052603160045260246000fd5b6001900381819060005260206000200160006101000a81549073ffffffffffffffffffffffffffffffffffffffff021916905590556000613b10848481518110613a7c577f4e487b7100000000000000000000000000000000000000000000000000000000600052603260045260246000fd5b60200260200101516005805480602002602001604051908101604052809291908181526020018280548015613b0657602002820191906000526020600020905b8160009054906101000a900473ffffffffffffffffffffffffffffffffffffffff1673ffffffffffffffffffffffffffffffffffffffff1681526020019060010190808311613abc575b505050505061291e565b905060056001600580549050613b269190614ea4565b81548110613b5d577f4e487b7100000000000000000000000000000000000000000000000000000000600052603260045260246000fd5b9060005260206000200160009054906101000a900473ffffffffffffffffffffffffffffffffffffffff1660058281548110613bc2577f4e487b7100000000000000000000000000000000000000000000000000000000600052603260045260246000fd5b9060005260206000200160006101000a81548173ffffffffffffffffffffffffffffffffffffffff021916908373ffffffffffffffffffffffffffffffffffffffff1602179055506005805480613c42577f4e487b7100000000000000000000000000000000000000000000000000000000600052603160045260246000fd5b6001900381819060005260206000200160006101000a81549073ffffffffffffffffffffffffffffffffffffffff021916905590556000600c6000868681518110613cb6577f4e487b7100000000000000000000000000000000000000000000000000000000600052603260045260246000fd5b602002602001015173ffffffffffffffffffffffffffffffffffffffff1673ffffffffffffffffffffffffffffffffffffffff16815260200190815260200160002060006101000a81548160ff0219169083151502179055506000600f6000868681518110613d4e577f4e487b7100000000000000000000000000000000000000000000000000000000600052603260045260246000fd5b602002602001015173ffffffffffffffffffffffffffffffffffffffff1673ffffffffffffffffffffffffffffffffffffffff16815260200190815260200160002060006101000a81548160ff02191690831515021790555050508080613db490614fc5565b9150506137fc565b507fdd7711054366d29fb9a701af15fb8c163747de233657fbb3256580de32522c3c81604051613dec9190614b06565b60405180910390a150565b600c6020528060005260406000206000915054906101000a900460ff1681565b6060600a6000018054613e2990614f62565b80601f0160208091040260200160405190810160405280929190818152602001828054613e5590614f62565b8015613ea25780601f10613e7757610100808354040283529160200191613ea2565b820191906000526020600020905b815481529060010190602001808311613e8557829003601f168201915b5050505050905090565b600160009054906101000a900473ffffffffffffffffffffffffffffffffffffffff1673ffffffffffffffffffffffffffffffffffffffff163373ffffffffffffffffffffffffffffffffffffffff161480613f515750600d60003373ffffffffffffffffffffffffffffffffffffffff1673ffffffffffffffffffffffffffffffffffffffff16815260200190815260200160002060009054906101000a900460ff165b80613fa55750600c60003373ffffffffffffffffffffffffffffffffffffffff1673ffffffffffffffffffffffffffffffffffffffff16815260200190815260200160002060009054906101000a900460ff165b613fe4576040517f08c379a0000000000000000000000000000000000000000000000000000000008152600401613fdb90614c3c565b60405180910390fd5b60001515600960029054906101000a900460ff1615151461403a576040517f08c379a000000000000000000000000000000000000000000000000000000000815260040161403190614cbc565b60405180910390fd5b60006040518060a001604052808573ffffffffffffffffffffffffffffffffffffffff1681526020016007548152602001848152602001838152602001600081525090508060116000600754815260200190815260200160002060008201518160000160006101000a81548173ffffffffffffffffffffffffffffffffffffffff021916908373ffffffffffffffffffffffffffffffffffffffff160217905550602082015181600101556040820151816002019080519060200190614101929190614418565b50606082015181600301908051906020019061411e929190614418565b5060808201518160040155905050600681908060018154018082558091505060019003906000526020600020906005020160009091909190915060008201518160000160006101000a81548173ffffffffffffffffffffffffffffffffffffffff021916908373ffffffffffffffffffffffffffffffffffffffff1602179055506020820151816001015560408201518160020190805190602001906141c5929190614418565b5060608201518160030190805190602001906141e2929190614418565b506080820151816004015550506001600760008282546142029190614e4e565b9250508190555050505050565b614217614307565b73ffffffffffffffffffffffffffffffffffffffff166142356128f5565b73ffffffffffffffffffffffffffffffffffffffff161461428b576040517f08c379a000000000000000000000000000000000000000000000000000000000815260040161428290614c9c565b60405180910390fd5b600073ffffffffffffffffffffffffffffffffffffffff168173ffffffffffffffffffffffffffffffffffffffff1614156142fb576040517f08c379a00000000000000000000000000000000000000000000000000000000081526004016142f290614bbc565b60405180910390fd5b6143048161430f565b50565b600033905090565b60008060009054906101000a900473ffffffffffffffffffffffffffffffffffffffff169050816000806101000a81548173ffffffffffffffffffffffffffffffffffffffff021916908373ffffffffffffffffffffffffffffffffffffffff1602179055508173ffffffffffffffffffffffffffffffffffffffff168173ffffffffffffffffffffffffffffffffffffffff167f8be0079c531659141344cd1fd0a4f28419497f9722a3daafe3b4186f6b6457e060405160405180910390a35050565b6040518060a00160405280600073ffffffffffffffffffffffffffffffffffffffff168152602001600081526020016060815260200160608152602001600081525090565b82805461442490614f62565b90600052602060002090601f016020900481019282614446576000855561448d565b82601f1061445f57805160ff191683800117855561448d565b8280016001018555821561448d579182015b8281111561448c578251825591602001919060010190614471565b5b50905061449a919061449e565b5090565b5b808211156144b757600081600090555060010161449f565b5090565b60006144ce6144c984614d9c565b614d77565b905080838252602082019050828560208602820111156144ed57600080fd5b60005b8581101561451d57816145038882614565565b8452602084019350602083019250506001810190506144f0565b5050509392505050565b600061453a61453584614dc8565b614d77565b90508281526020810184848401111561455257600080fd5b61455d848285614f20565b509392505050565b6000813590506145748161541a565b92915050565b600082601f83011261458b57600080fd5b813561459b8482602086016144bb565b91505092915050565b600082601f8301126145b557600080fd5b81356145c5848260208601614527565b91505092915050565b6000813590506145dd81615431565b92915050565b6000602082840312156145f557600080fd5b600061460384828501614565565b91505092915050565b6000806040838503121561461f57600080fd5b600061462d85828601614565565b925050602083013567ffffffffffffffff81111561464a57600080fd5b6146568582860161457a565b9150509250929050565b60008060006060848603121561467557600080fd5b600061468386828701614565565b935050602084013567ffffffffffffffff8111156146a057600080fd5b6146ac868287016145a4565b925050604084013567ffffffffffffffff8111156146c957600080fd5b6146d5868287016145a4565b9150509250925092565b6000602082840312156146f157600080fd5b600082013567ffffffffffffffff81111561470b57600080fd5b6147178482850161457a565b91505092915050565b6000806040838503121561473357600080fd5b600083013567ffffffffffffffff81111561474d57600080fd5b614759858286016145a4565b925050602083013567ffffffffffffffff81111561477657600080fd5b614782858286016145a4565b9150509250929050565b60006020828403121561479e57600080fd5b60006147ac848285016145ce565b91505092915050565b60006147c183836147cd565b60208301905092915050565b6147d681614ed8565b82525050565b6147e581614ed8565b82525050565b60006147f682614e09565b6148008185614e2c565b935061480b83614df9565b8060005b8381101561483c57815161482388826147b5565b975061482e83614e1f565b92505060018101905061480f565b5085935050505092915050565b61485281614eea565b82525050565b600061486382614e14565b61486d8185614e3d565b935061487d818560208601614f2f565b6148868161509b565b840191505092915050565b600061489e602e83614e3d565b91506148a9826150ac565b604082019050919050565b60006148c1602683614e3d565b91506148cc826150fb565b604082019050919050565b60006148e4601883614e3d565b91506148ef8261514a565b602082019050919050565b6000614907602b83614e3d565b915061491282615173565b604082019050919050565b600061492a601883614e3d565b9150614935826151c2565b602082019050919050565b600061494d601b83614e3d565b9150614958826151eb565b602082019050919050565b6000614970604483614e3d565b915061497b82615214565b606082019050919050565b6000614993601383614e3d565b915061499e82615289565b602082019050919050565b60006149b6602083614e3d565b91506149c1826152b2565b602082019050919050565b60006149d9601283614e3d565b91506149e4826152db565b602082019050919050565b60006149fc602a83614e3d565b9150614a0782615304565b604082019050919050565b6000614a1f602e83614e3d565b9150614a2a82615353565b604082019050919050565b6000614a42601683614e3d565b9150614a4d826153a2565b602082019050919050565b6000614a65602b83614e3d565b9150614a70826153cb565b604082019050919050565b614a8481614f16565b82525050565b6000602082019050614a9f60008301846147dc565b92915050565b600060a082019050614aba60008301886147dc565b614ac76020830187614a7b565b8181036040830152614ad98186614858565b90508181036060830152614aed8185614858565b9050614afc6080830184614a7b565b9695505050505050565b60006020820190508181036000830152614b2081846147eb565b905092915050565b6000602082019050614b3d6000830184614849565b92915050565b60006020820190508181036000830152614b5d8184614858565b905092915050565b60006040820190508181036000830152614b7f8185614858565b90508181036020830152614b938184614858565b90509392505050565b60006020820190508181036000830152614bb581614891565b9050919050565b60006020820190508181036000830152614bd5816148b4565b9050919050565b60006020820190508181036000830152614bf5816148d7565b9050919050565b60006020820190508181036000830152614c15816148fa565b9050919050565b60006020820190508181036000830152614c358161491d565b9050919050565b60006020820190508181036000830152614c5581614940565b9050919050565b60006020820190508181036000830152614c7581614963565b9050919050565b60006020820190508181036000830152614c9581614986565b9050919050565b60006020820190508181036000830152614cb5816149a9565b9050919050565b60006020820190508181036000830152614cd5816149cc565b9050919050565b60006020820190508181036000830152614cf5816149ef565b9050919050565b60006020820190508181036000830152614d1581614a12565b9050919050565b60006020820190508181036000830152614d3581614a35565b9050919050565b60006020820190508181036000830152614d5581614a58565b9050919050565b6000602082019050614d716000830184614a7b565b92915050565b6000614d81614d92565b9050614d8d8282614f94565b919050565b6000604051905090565b600067ffffffffffffffff821115614db757614db661506c565b5b602082029050602081019050919050565b600067ffffffffffffffff821115614de357614de261506c565b5b614dec8261509b565b9050602081019050919050565b6000819050602082019050919050565b600081519050919050565b600081519050919050565b6000602082019050919050565b600082825260208201905092915050565b600082825260208201905092915050565b6000614e5982614f16565b9150614e6483614f16565b9250827fffffffffffffffffffffffffffffffffffffffffffffffffffffffffffffffff03821115614e9957614e9861500e565b5b828201905092915050565b6000614eaf82614f16565b9150614eba83614f16565b925082821015614ecd57614ecc61500e565b5b828203905092915050565b6000614ee382614ef6565b9050919050565b60008115159050919050565b600073ffffffffffffffffffffffffffffffffffffffff82169050919050565b6000819050919050565b82818337600083830152505050565b60005b83811015614f4d578082015181840152602081019050614f32565b83811115614f5c576000848401525b50505050565b60006002820490506001821680614f7a57607f821691505b60208210811415614f8e57614f8d61503d565b5b50919050565b614f9d8261509b565b810181811067ffffffffffffffff82111715614fbc57614fbb61506c565b5b80604052505050565b6000614fd082614f16565b91507fffffffffffffffffffffffffffffffffffffffffffffffffffffffffffffffff8214156150035761500261500e565b5b600182019050919050565b7f4e487b7100000000000000000000000000000000000000000000000000000000600052601160045260246000fd5b7f4e487b7100000000000000000000000000000000000000000000000000000000600052602260045260246000fd5b7f4e487b7100000000000000000000000000000000000000000000000000000000600052604160045260246000fd5b6000601f19601f8301169050919050565b7f43616e206f6e6c792072656d6f76652061206d6178206f66203530207374756460008201527f656e747320617420612074696d65000000000000000000000000000000000000602082015250565b7f4f776e61626c653a206e6577206f776e657220697320746865207a65726f206160008201527f6464726573730000000000000000000000000000000000000000000000000000602082015250565b7f596f75277265206e6f742061205374616b65486f6c6465720000000000000000600082015250565b7f43616e206f6e6c79207365742061206d6178206f662035302073747564656e7460008201527f7320617420612074696d65000000000000000000000000000000000000000000602082015250565b7f596f75277265206e6f74207468652043686169726d616e210000000000000000600082015250565b7f596f75277265206e6f7420612054727573746565204d656d6265720000000000600082015250565b7f43616e206f6e6c79207365742061206d6178206f66203530206d656d6265727360008201527f206f662074686520426f617264206f66204469726563746f727320617420612060208201527f74696d6500000000000000000000000000000000000000000000000000000000604082015250565b7f566f74696e67206e6f7420616c6c6f7765642e00000000000000000000000000600082015250565b7f4f776e61626c653a2063616c6c6572206973206e6f7420746865206f776e6572600082015250565b7f436f6e7472616374206973205061757365640000000000000000000000000000600082015250565b7f43616e206f6e6c792072656d6f76652061206d6178206f6620353020424f447360008201527f20617420612074696d6500000000000000000000000000000000000000000000602082015250565b7f43616e206f6e6c792072656d6f76652061206d6178206f66203530207465616360008201527f6865727320617420612074696d65000000000000000000000000000000000000602082015250565b7f596f75206861766520616c726561647920766f74656400000000000000000000600082015250565b7f43616e206f6e6c79207365742061206d6178206f66203530207465616368657260008201527f7320617420612074696d65000000000000000000000000000000000000000000602082015250565b61542381614ed8565b811461542e57600080fd5b50565b61543a81614f16565b811461544557600080fd5b5056fea2646970667358221220b64abb14f2a8f03b003108c4a8055225b1e3bd2800c75619e01ab703c5ff2ad464736f6c63430008040033",
  "linkReferences": {},
  "deployedLinkReferences": {}
}