{
  "_format": "hh-sol-artifact-1",
  "contractName": "Voting",
  "sourceName": "contracts/Voting.sol",
  "abi": [
    {
      "inputs": [],
      "stateMutability": "nonpayable",
      "type": "constructor"
    },
    {
      "anonymous": false,
      "inputs": [
        {
          "indexed": false,
          "internalType": "address[]",
          "name": "_BODs",
          "type": "address[]"
        }
      ],
      "name": "BODRemoved",
      "type": "event"
    },
    {
      "anonymous": false,
      "inputs": [
        {
          "indexed": false,
          "internalType": "address[]",
          "name": "_BODs",
          "type": "address[]"
        }
      ],
      "name": "BODSet",
      "type": "event"
    },
    {
      "anonymous": false,
      "inputs": [
        {
          "indexed": true,
          "internalType": "address",
          "name": "previousOwner",
          "type": "address"
        },
        {
          "indexed": true,
          "internalType": "address",
          "name": "newOwner",
          "type": "address"
        }
      ],
      "name": "OwnershipTransferred",
      "type": "event"
    },
    {
      "anonymous": false,
      "inputs": [
        {
          "indexed": false,
          "internalType": "address[]",
          "name": "_students",
          "type": "address[]"
        }
      ],
      "name": "StudentRemoved",
      "type": "event"
    },
    {
      "anonymous": false,
      "inputs": [
        {
          "indexed": false,
          "internalType": "address[]",
          "name": "_students",
          "type": "address[]"
        }
      ],
      "name": "StudentSet",
      "type": "event"
    },
    {
      "anonymous": false,
      "inputs": [
        {
          "indexed": false,
          "internalType": "address[]",
          "name": "_teachers",
          "type": "address[]"
        }
      ],
      "name": "TeacherRemoved",
      "type": "event"
    },
    {
      "anonymous": false,
      "inputs": [
        {
          "indexed": false,
          "internalType": "address[]",
          "name": "_teachers",
          "type": "address[]"
        }
      ],
      "name": "TeacherSet",
      "type": "event"
    },
    {
      "inputs": [
        {
          "internalType": "uint256",
          "name": "",
          "type": "uint256"
        }
      ],
      "name": "BOD",
      "outputs": [
        {
          "internalType": "address",
          "name": "",
          "type": "address"
        }
      ],
      "stateMutability": "view",
      "type": "function"
    },
    {
      "inputs": [
        {
          "internalType": "address",
          "name": "_candidateAddress",
          "type": "address"
        },
        {
          "internalType": "string",
          "name": "_header",
          "type": "string"
        },
        {
          "internalType": "string",
          "name": "_slogan",
          "type": "string"
        }
      ],
      "name": "addCandidate",
      "outputs": [],
      "stateMutability": "nonpayable",
      "type": "function"
    },
    {
      "inputs": [
        {
          "internalType": "uint256",
          "name": "",
          "type": "uint256"
        }
      ],
      "name": "candidateDetails",
      "outputs": [
        {
          "internalType": "address",
          "name": "candidateAddress",
          "type": "address"
        },
        {
          "internalType": "uint256",
          "name": "candidateId",
          "type": "uint256"
        },
        {
          "internalType": "string",
          "name": "header",
          "type": "string"
        },
        {
          "internalType": "string",
          "name": "slogan",
          "type": "string"
        },
        {
          "internalType": "uint256",
          "name": "voteCount",
          "type": "uint256"
        }
      ],
      "stateMutability": "view",
      "type": "function"
    },
    {
      "inputs": [],
      "name": "chairman",
      "outputs": [
        {
          "internalType": "address",
          "name": "",
          "type": "address"
        }
      ],
      "stateMutability": "view",
      "type": "function"
    },
    {
      "inputs": [],
      "name": "electionDetails",
      "outputs": [
        {
          "internalType": "string",
          "name": "name",
          "type": "string"
        },
        {
          "internalType": "string",
          "name": "electivePosition",
          "type": "string"
        },
        {
          "internalType": "enum Voting.Status",
          "name": "status",
          "type": "uint8"
        }
      ],
      "stateMutability": "view",
      "type": "function"
    },
    {
      "inputs": [],
      "name": "endElection",
      "outputs": [],
      "stateMutability": "nonpayable",
      "type": "function"
    },
    {
      "inputs": [
        {
          "internalType": "address",
          "name": "addr",
          "type": "address"
        },
        {
          "internalType": "address[]",
          "name": "_array",
          "type": "address[]"
        }
      ],
      "name": "find",
      "outputs": [
        {
          "internalType": "uint256",
          "name": "",
          "type": "uint256"
        }
      ],
      "stateMutability": "pure",
      "type": "function"
    },
    {
      "inputs": [],
      "name": "getElectionTitle",
      "outputs": [
        {
          "internalType": "string",
          "name": "",
          "type": "string"
        }
      ],
      "stateMutability": "view",
      "type": "function"
    },
    {
      "inputs": [],
      "name": "getOrganizationTitle",
      "outputs": [
        {
          "internalType": "string",
          "name": "",
          "type": "string"
        }
      ],
      "stateMutability": "view",
      "type": "function"
    },
    {
      "inputs": [],
      "name": "getTotalCandidate",
      "outputs": [
        {
          "internalType": "uint256",
          "name": "",
          "type": "uint256"
        }
      ],
      "stateMutability": "view",
      "type": "function"
    },
    {
      "inputs": [],
      "name": "getTotalVoter",
      "outputs": [
        {
          "internalType": "uint256",
          "name": "",
          "type": "uint256"
        }
      ],
      "stateMutability": "view",
      "type": "function"
    },
    {
      "inputs": [
        {
          "internalType": "address",
          "name": "",
          "type": "address"
        }
      ],
      "name": "isBODMember",
      "outputs": [
        {
          "internalType": "bool",
          "name": "",
          "type": "bool"
        }
      ],
      "stateMutability": "view",
      "type": "function"
    },
    {
      "inputs": [
        {
          "internalType": "address",
          "name": "",
          "type": "address"
        }
      ],
      "name": "isStakeHolder",
      "outputs": [
        {
          "internalType": "bool",
          "name": "",
          "type": "bool"
        }
      ],
      "stateMutability": "view",
      "type": "function"
    },
    {
      "inputs": [
        {
          "internalType": "address",
          "name": "",
          "type": "address"
        }
      ],
      "name": "isStudent",
      "outputs": [
        {
          "internalType": "bool",
          "name": "",
          "type": "bool"
        }
      ],
      "stateMutability": "view",
      "type": "function"
    },
    {
      "inputs": [
        {
          "internalType": "address",
          "name": "",
          "type": "address"
        }
      ],
      "name": "isTeacher",
      "outputs": [
        {
          "internalType": "bool",
          "name": "",
          "type": "bool"
        }
      ],
      "stateMutability": "view",
      "type": "function"
    },
    {
      "inputs": [],
      "name": "owner",
      "outputs": [
        {
          "internalType": "address",
          "name": "",
          "type": "address"
        }
      ],
      "stateMutability": "view",
      "type": "function"
    },
    {
      "inputs": [
        {
          "internalType": "address[]",
          "name": "_BOD",
          "type": "address[]"
        }
      ],
      "name": "removeBOD",
      "outputs": [],
      "stateMutability": "nonpayable",
      "type": "function"
    },
    {
      "inputs": [
        {
          "internalType": "address[]",
          "name": "_students",
          "type": "address[]"
        }
      ],
      "name": "removeStudent",
      "outputs": [],
      "stateMutability": "nonpayable",
      "type": "function"
    },
    {
      "inputs": [
        {
          "internalType": "address[]",
          "name": "_teachers",
          "type": "address[]"
        }
      ],
      "name": "removeTeacher",
      "outputs": [],
      "stateMutability": "nonpayable",
      "type": "function"
    },
    {
      "inputs": [],
      "name": "renounceOwnership",
      "outputs": [],
      "stateMutability": "nonpayable",
      "type": "function"
    },
    {
      "inputs": [
        {
          "internalType": "address[]",
          "name": "_BOD",
          "type": "address[]"
        }
      ],
      "name": "setBOD",
      "outputs": [],
      "stateMutability": "nonpayable",
      "type": "function"
    },
    {
      "inputs": [
        {
          "internalType": "address",
          "name": "_chairman",
          "type": "address"
        }
      ],
      "name": "setChairman",
      "outputs": [],
      "stateMutability": "nonpayable",
      "type": "function"
    },
    {
      "inputs": [
        {
          "internalType": "string",
          "name": "_name",
          "type": "string"
        },
        {
          "internalType": "string",
          "name": "_electivePosition",
          "type": "string"
        },
        {
          "internalType": "enum Voting.Status",
          "name": "_status",
          "type": "uint8"
        },
        {
          "internalType": "string[]",
          "name": "_participants",
          "type": "string[]"
        }
      ],
      "name": "setElectionDetails",
      "outputs": [],
      "stateMutability": "nonpayable",
      "type": "function"
    },
    {
      "inputs": [
        {
          "internalType": "address[]",
          "name": "_students",
          "type": "address[]"
        }
      ],
      "name": "setStudent",
      "outputs": [],
      "stateMutability": "nonpayable",
      "type": "function"
    },
    {
      "inputs": [
        {
          "internalType": "address[]",
          "name": "_teachers",
          "type": "address[]"
        }
      ],
      "name": "setTeacher",
      "outputs": [],
      "stateMutability": "nonpayable",
      "type": "function"
    },
    {
      "inputs": [
        {
          "internalType": "address",
          "name": "",
          "type": "address"
        }
      ],
      "name": "stakeholderDetails",
      "outputs": [
        {
          "internalType": "address",
          "name": "stakeholderAddress",
          "type": "address"
        },
        {
          "internalType": "string",
          "name": "role",
          "type": "string"
        },
        {
          "internalType": "bool",
          "name": "hasVoted",
          "type": "bool"
        }
      ],
      "stateMutability": "view",
      "type": "function"
    },
    {
      "inputs": [
        {
          "internalType": "uint256",
          "name": "",
          "type": "uint256"
        }
      ],
      "name": "stakeholders",
      "outputs": [
        {
          "internalType": "address",
          "name": "",
          "type": "address"
        }
      ],
      "stateMutability": "view",
      "type": "function"
    },
    {
      "inputs": [],
      "name": "startElection",
      "outputs": [],
      "stateMutability": "nonpayable",
      "type": "function"
    },
    {
      "inputs": [
        {
          "internalType": "uint256",
          "name": "",
          "type": "uint256"
        }
      ],
      "name": "students",
      "outputs": [
        {
          "internalType": "address",
          "name": "",
          "type": "address"
        }
      ],
      "stateMutability": "view",
      "type": "function"
    },
    {
      "inputs": [
        {
          "internalType": "uint256",
          "name": "",
          "type": "uint256"
        }
      ],
      "name": "teachers",
      "outputs": [
        {
          "internalType": "address",
          "name": "",
          "type": "address"
        }
      ],
      "stateMutability": "view",
      "type": "function"
    },
    {
      "inputs": [
        {
          "internalType": "address",
          "name": "newOwner",
          "type": "address"
        }
      ],
      "name": "transferOwnership",
      "outputs": [],
      "stateMutability": "nonpayable",
      "type": "function"
    },
    {
      "inputs": [
        {
          "internalType": "uint256",
          "name": "candidateId",
          "type": "uint256"
        }
      ],
      "name": "vote",
      "outputs": [],
      "stateMutability": "nonpayable",
      "type": "function"
    }
  ],
  "bytecode": "0x60806040523480156200001157600080fd5b5062000032620000266200006360201b60201c565b6200006b60201b60201c565b600060068190555060006007819055506000600860006101000a81548160ff0219169083151502179055506200012f565b600033905090565b60008060009054906101000a900473ffffffffffffffffffffffffffffffffffffffff169050816000806101000a81548173ffffffffffffffffffffffffffffffffffffffff021916908373ffffffffffffffffffffffffffffffffffffffff1602179055508173ffffffffffffffffffffffffffffffffffffffff168173ffffffffffffffffffffffffffffffffffffffff167f8be0079c531659141344cd1fd0a4f28419497f9722a3daafe3b4186f6b6457e060405160405180910390a35050565b614995806200013f6000396000f3fe608060405234801561001057600080fd5b50600436106101f05760003560e01c8063715018a61161010f578063a447ebc1116100a2578063aec37eb311610071578063aec37eb3146105ab578063e173730c146105db578063e22a6231146105f9578063f2fde38b14610615576101f0565b8063a447ebc114610527578063a7b4952914610557578063a81b6f6914610573578063a9a3eea71461058f576101f0565b806387f7b975116100de57806387f7b9751461049f5780638da5cb5b146104bd57806393c1d4c8146104db578063961ebb231461050b576101f0565b8063715018a61461042d5780637e5ea48f1461043757806382f7d392146104535780638668dfc914610483576101f0565b806355ea557711610187578063635121591161015657806363512159146103a357806364d198a1146103d357806367170322146103f15780636d2f69661461040d576101f0565b806355ea55771461033f57806359f784681461035b5780636247e5321461036557806362d73eb814610399576101f0565b806320d67e81116101c357806320d67e811461028f57806321437185146102bf57806334ac0b40146102f15780634834317514610321576101f0565b80630121b93f146101f557806306ead22e146102115780630b93400e146102415780631d6b8b721461025f575b600080fd5b61020f600480360381019061020a9190613c7c565b610631565b005b61022b60048036038101906102269190613c7c565b6107a9565b6040516102389190613f43565b60405180910390f35b6102496107e8565b6040516102569190614221565b60405180910390f35b61027960048036038101906102749190613c7c565b6107f2565b6040516102869190613f43565b60405180910390f35b6102a960048036038101906102a49190613a94565b610831565b6040516102b6919061401f565b60405180910390f35b6102d960048036038101906102d49190613a94565b610851565b6040516102e893929190613f5e565b60405180910390f35b61030b60048036038101906103069190613c7c565b610930565b6040516103189190613f43565b60405180910390f35b61032961096f565b604051610336919061403a565b60405180910390f35b61035960048036038101906103549190613b90565b610a04565b005b610363610da9565b005b61037f600480360381019061037a9190613c7c565b610e56565b604051610390959493929190613f9c565b60405180910390f35b6103a1610fbc565b005b6103bd60048036038101906103b89190613a94565b611069565b6040516103ca919061401f565b60405180910390f35b6103db611089565b6040516103e89190614221565b60405180910390f35b61040b60048036038101906104069190613bd1565b611093565b005b6104156112f7565b6040516104249392919061405c565b60405180910390f35b61043561142c565b005b610451600480360381019061044c9190613b90565b6114b4565b005b61046d60048036038101906104689190613a94565b611b87565b60405161047a919061401f565b60405180910390f35b61049d60048036038101906104989190613b90565b611ba7565b005b6104a761227a565b6040516104b49190613f43565b60405180910390f35b6104c56122a0565b6040516104d29190613f43565b60405180910390f35b6104f560048036038101906104f09190613abd565b6122c9565b6040516105029190614221565b60405180910390f35b61052560048036038101906105209190613b90565b612361565b005b610541600480360381019061053c9190613c7c565b612706565b60405161054e9190613f43565b60405180910390f35b610571600480360381019061056c9190613a94565b612745565b005b61058d60048036038101906105889190613b90565b612805565b005b6105a960048036038101906105a49190613b90565b612baa565b005b6105c560048036038101906105c09190613a94565b61327d565b6040516105d2919061401f565b60405180910390f35b6105e361329d565b6040516105f0919061403a565b60405180910390f35b610613600480360381019061060e9190613b11565b613332565b005b61062f600480360381019061062a9190613a94565b61357c565b005b60001515601160003373ffffffffffffffffffffffffffffffffffffffff1673ffffffffffffffffffffffffffffffffffffffff16815260200190815260200160002060020160009054906101000a900460ff161515146106c7576040517f08c379a00000000000000000000000000000000000000000000000000000000081526004016106be906141e1565b60405180910390fd5b60011515600860009054906101000a900460ff1615151461071d576040517f08c379a0000000000000000000000000000000000000000000000000000000008152600401610714906140e1565b60405180910390fd5b6001601260008381526020019081526020016000206004016000828254610744919061433f565b925050819055506001601160003373ffffffffffffffffffffffffffffffffffffffff1673ffffffffffffffffffffffffffffffffffffffff16815260200190815260200160002060020160006101000a81548160ff02191690831515021790555050565b600481815481106107b957600080fd5b906000526020600020016000915054906101000a900473ffffffffffffffffffffffffffffffffffffffff1681565b6000600754905090565b6005818154811061080257600080fd5b906000526020600020016000915054906101000a900473ffffffffffffffffffffffffffffffffffffffff1681565b600e6020528060005260406000206000915054906101000a900460ff1681565b60116020528060005260406000206000915090508060000160009054906101000a900473ffffffffffffffffffffffffffffffffffffffff169080600101805461089a90614478565b80601f01602080910402602001604051908101604052809291908181526020018280546108c690614478565b80156109135780601f106108e857610100808354040283529160200191610913565b820191906000526020600020905b8154815290600101906020018083116108f657829003601f168201915b5050505050908060020160009054906101000a900460ff16905083565b6002818154811061094057600080fd5b906000526020600020016000915054906101000a900473ffffffffffffffffffffffffffffffffffffffff1681565b60606009600101805461098190614478565b80601f01602080910402602001604051908101604052809291908181526020018280546109ad90614478565b80156109fa5780601f106109cf576101008083540402835291602001916109fa565b820191906000526020600020905b8154815290600101906020018083116109dd57829003601f168201915b5050505050905090565b600160009054906101000a900473ffffffffffffffffffffffffffffffffffffffff1673ffffffffffffffffffffffffffffffffffffffff163373ffffffffffffffffffffffffffffffffffffffff1614610a94576040517f08c379a0000000000000000000000000000000000000000000000000000000008152600401610a8b90614121565b60405180910390fd5b603281511115610ad9576040517f08c379a0000000000000000000000000000000000000000000000000000000008152600401610ad090614161565b60405180910390fd5b60005b8151811015610d6e576003828281518110610b20577f4e487b7100000000000000000000000000000000000000000000000000000000600052603260045260246000fd5b60200260200101519080600181540180825580915050600190039060005260206000200160009091909190916101000a81548173ffffffffffffffffffffffffffffffffffffffff021916908373ffffffffffffffffffffffffffffffffffffffff1602179055506005828281518110610bc3577f4e487b7100000000000000000000000000000000000000000000000000000000600052603260045260246000fd5b60200260200101519080600181540180825580915050600190039060005260206000200160009091909190916101000a81548173ffffffffffffffffffffffffffffffffffffffff021916908373ffffffffffffffffffffffffffffffffffffffff1602179055506001600e6000848481518110610c6a577f4e487b7100000000000000000000000000000000000000000000000000000000600052603260045260246000fd5b602002602001015173ffffffffffffffffffffffffffffffffffffffff1673ffffffffffffffffffffffffffffffffffffffff16815260200190815260200160002060006101000a81548160ff021916908315150217905550600160106000848481518110610d02577f4e487b7100000000000000000000000000000000000000000000000000000000600052603260045260246000fd5b602002602001015173ffffffffffffffffffffffffffffffffffffffff1673ffffffffffffffffffffffffffffffffffffffff16815260200190815260200160002060006101000a81548160ff0219169083151502179055508080610d66906144db565b915050610adc565b507f8769982c70c7577e44a1c7dce9da8628ebf7feb589baff3c4979cbb2427a0c3181604051610d9e9190613ffd565b60405180910390a150565b600160009054906101000a900473ffffffffffffffffffffffffffffffffffffffff1673ffffffffffffffffffffffffffffffffffffffff163373ffffffffffffffffffffffffffffffffffffffff1614610e39576040517f08c379a0000000000000000000000000000000000000000000000000000000008152600401610e3090614121565b60405180910390fd5b6000600860006101000a81548160ff021916908315150217905550565b60126020528060005260406000206000915090508060000160009054906101000a900473ffffffffffffffffffffffffffffffffffffffff1690806001015490806002018054610ea590614478565b80601f0160208091040260200160405190810160405280929190818152602001828054610ed190614478565b8015610f1e5780601f10610ef357610100808354040283529160200191610f1e565b820191906000526020600020905b815481529060010190602001808311610f0157829003601f168201915b505050505090806003018054610f3390614478565b80601f0160208091040260200160405190810160405280929190818152602001828054610f5f90614478565b8015610fac5780601f10610f8157610100808354040283529160200191610fac565b820191906000526020600020905b815481529060010190602001808311610f8f57829003601f168201915b5050505050908060040154905085565b600160009054906101000a900473ffffffffffffffffffffffffffffffffffffffff1673ffffffffffffffffffffffffffffffffffffffff163373ffffffffffffffffffffffffffffffffffffffff161461104c576040517f08c379a000000000000000000000000000000000000000000000000000000000815260040161104390614121565b60405180910390fd5b6001600860006101000a81548160ff021916908315150217905550565b60106020528060005260406000206000915054906101000a900460ff1681565b6000600654905090565b600160009054906101000a900473ffffffffffffffffffffffffffffffffffffffff1673ffffffffffffffffffffffffffffffffffffffff163373ffffffffffffffffffffffffffffffffffffffff1614806111385750600e60003373ffffffffffffffffffffffffffffffffffffffff1673ffffffffffffffffffffffffffffffffffffffff16815260200190815260200160002060009054906101000a900460ff165b8061118c5750600d60003373ffffffffffffffffffffffffffffffffffffffff1673ffffffffffffffffffffffffffffffffffffffff16815260200190815260200160002060009054906101000a900460ff165b6111cb576040517f08c379a00000000000000000000000000000000000000000000000000000000081526004016111c290614141565b60405180910390fd5b604051806080016040528085815260200184815260200183600381111561121b577f4e487b7100000000000000000000000000000000000000000000000000000000600052602160045260246000fd5b81526020018281525060096000820151816000019080519060200190611242929190613740565b50602082015181600101908051906020019061125f929190613740565b5060408201518160020160006101000a81548160ff021916908360038111156112b1577f4e487b7100000000000000000000000000000000000000000000000000000000600052602160045260246000fd5b021790555060608201518160030190805190602001906112d29291906137c6565b509050506000600860006101000a81548160ff02191690831515021790555050505050565b600980600001805461130890614478565b80601f016020809104026020016040519081016040528092919081815260200182805461133490614478565b80156113815780601f1061135657610100808354040283529160200191611381565b820191906000526020600020905b81548152906001019060200180831161136457829003601f168201915b50505050509080600101805461139690614478565b80601f01602080910402602001604051908101604052809291908181526020018280546113c290614478565b801561140f5780601f106113e45761010080835404028352916020019161140f565b820191906000526020600020905b8154815290600101906020018083116113f257829003601f168201915b5050505050908060020160009054906101000a900460ff16905083565b611434613674565b73ffffffffffffffffffffffffffffffffffffffff166114526122a0565b73ffffffffffffffffffffffffffffffffffffffff16146114a8576040517f08c379a000000000000000000000000000000000000000000000000000000000815260040161149f90614181565b60405180910390fd5b6114b2600061367c565b565b600160009054906101000a900473ffffffffffffffffffffffffffffffffffffffff1673ffffffffffffffffffffffffffffffffffffffff163373ffffffffffffffffffffffffffffffffffffffff1614611544576040517f08c379a000000000000000000000000000000000000000000000000000000000815260040161153b90614121565b60405180910390fd5b603281511115611589576040517f08c379a0000000000000000000000000000000000000000000000000000000008152600401611580906140a1565b60405180910390fd5b60005b8151811015611b4c5760006116678383815181106115d3577f4e487b7100000000000000000000000000000000000000000000000000000000600052603260045260246000fd5b6020026020010151600480548060200260200160405190810160405280929190818152602001828054801561165d57602002820191906000526020600020905b8160009054906101000a900473ffffffffffffffffffffffffffffffffffffffff1673ffffffffffffffffffffffffffffffffffffffff1681526020019060010190808311611613575b50505050506122c9565b90506004600160048054905061167d9190614395565b815481106116b4577f4e487b7100000000000000000000000000000000000000000000000000000000600052603260045260246000fd5b9060005260206000200160009054906101000a900473ffffffffffffffffffffffffffffffffffffffff1660048281548110611719577f4e487b7100000000000000000000000000000000000000000000000000000000600052603260045260246000fd5b9060005260206000200160006101000a81548173ffffffffffffffffffffffffffffffffffffffff021916908373ffffffffffffffffffffffffffffffffffffffff1602179055506004805480611799577f4e487b7100000000000000000000000000000000000000000000000000000000600052603160045260246000fd5b6001900381819060005260206000200160006101000a81549073ffffffffffffffffffffffffffffffffffffffff0219169055905560006118a084848151811061180c577f4e487b7100000000000000000000000000000000000000000000000000000000600052603260045260246000fd5b6020026020010151600580548060200260200160405190810160405280929190818152602001828054801561189657602002820191906000526020600020905b8160009054906101000a900473ffffffffffffffffffffffffffffffffffffffff1673ffffffffffffffffffffffffffffffffffffffff168152602001906001019080831161184c575b50505050506122c9565b9050600560016005805490506118b69190614395565b815481106118ed577f4e487b7100000000000000000000000000000000000000000000000000000000600052603260045260246000fd5b9060005260206000200160009054906101000a900473ffffffffffffffffffffffffffffffffffffffff1660058281548110611952577f4e487b7100000000000000000000000000000000000000000000000000000000600052603260045260246000fd5b9060005260206000200160006101000a81548173ffffffffffffffffffffffffffffffffffffffff021916908373ffffffffffffffffffffffffffffffffffffffff16021790555060058054806119d2577f4e487b7100000000000000000000000000000000000000000000000000000000600052603160045260246000fd5b6001900381819060005260206000200160006101000a81549073ffffffffffffffffffffffffffffffffffffffff021916905590556000600f6000868681518110611a46577f4e487b7100000000000000000000000000000000000000000000000000000000600052603260045260246000fd5b602002602001015173ffffffffffffffffffffffffffffffffffffffff1673ffffffffffffffffffffffffffffffffffffffff16815260200190815260200160002060006101000a81548160ff021916908315150217905550600060106000868681518110611ade577f4e487b7100000000000000000000000000000000000000000000000000000000600052603260045260246000fd5b602002602001015173ffffffffffffffffffffffffffffffffffffffff1673ffffffffffffffffffffffffffffffffffffffff16815260200190815260200160002060006101000a81548160ff02191690831515021790555050508080611b44906144db565b91505061158c565b507faacc6dfa92cfb8bfae12e064b6a99315ed313cd86d20ab1336cc0fc13eac3f4581604051611b7c9190613ffd565b60405180910390a150565b600f6020528060005260406000206000915054906101000a900460ff1681565b600160009054906101000a900473ffffffffffffffffffffffffffffffffffffffff1673ffffffffffffffffffffffffffffffffffffffff163373ffffffffffffffffffffffffffffffffffffffff1614611c37576040517f08c379a0000000000000000000000000000000000000000000000000000000008152600401611c2e90614121565b60405180910390fd5b603281511115611c7c576040517f08c379a0000000000000000000000000000000000000000000000000000000008152600401611c73906141a1565b60405180910390fd5b60005b815181101561223f576000611d5a838381518110611cc6577f4e487b7100000000000000000000000000000000000000000000000000000000600052603260045260246000fd5b60200260200101516003805480602002602001604051908101604052809291908181526020018280548015611d5057602002820191906000526020600020905b8160009054906101000a900473ffffffffffffffffffffffffffffffffffffffff1673ffffffffffffffffffffffffffffffffffffffff1681526020019060010190808311611d06575b50505050506122c9565b905060036001600380549050611d709190614395565b81548110611da7577f4e487b7100000000000000000000000000000000000000000000000000000000600052603260045260246000fd5b9060005260206000200160009054906101000a900473ffffffffffffffffffffffffffffffffffffffff1660038281548110611e0c577f4e487b7100000000000000000000000000000000000000000000000000000000600052603260045260246000fd5b9060005260206000200160006101000a81548173ffffffffffffffffffffffffffffffffffffffff021916908373ffffffffffffffffffffffffffffffffffffffff1602179055506003805480611e8c577f4e487b7100000000000000000000000000000000000000000000000000000000600052603160045260246000fd5b6001900381819060005260206000200160006101000a81549073ffffffffffffffffffffffffffffffffffffffff021916905590556000611f93848481518110611eff577f4e487b7100000000000000000000000000000000000000000000000000000000600052603260045260246000fd5b60200260200101516005805480602002602001604051908101604052809291908181526020018280548015611f8957602002820191906000526020600020905b8160009054906101000a900473ffffffffffffffffffffffffffffffffffffffff1673ffffffffffffffffffffffffffffffffffffffff1681526020019060010190808311611f3f575b50505050506122c9565b905060056001600580549050611fa99190614395565b81548110611fe0577f4e487b7100000000000000000000000000000000000000000000000000000000600052603260045260246000fd5b9060005260206000200160009054906101000a900473ffffffffffffffffffffffffffffffffffffffff1660058281548110612045577f4e487b7100000000000000000000000000000000000000000000000000000000600052603260045260246000fd5b9060005260206000200160006101000a81548173ffffffffffffffffffffffffffffffffffffffff021916908373ffffffffffffffffffffffffffffffffffffffff16021790555060058054806120c5577f4e487b7100000000000000000000000000000000000000000000000000000000600052603160045260246000fd5b6001900381819060005260206000200160006101000a81549073ffffffffffffffffffffffffffffffffffffffff021916905590556000600e6000868681518110612139577f4e487b7100000000000000000000000000000000000000000000000000000000600052603260045260246000fd5b602002602001015173ffffffffffffffffffffffffffffffffffffffff1673ffffffffffffffffffffffffffffffffffffffff16815260200190815260200160002060006101000a81548160ff0219169083151502179055506000601060008686815181106121d1577f4e487b7100000000000000000000000000000000000000000000000000000000600052603260045260246000fd5b602002602001015173ffffffffffffffffffffffffffffffffffffffff1673ffffffffffffffffffffffffffffffffffffffff16815260200190815260200160002060006101000a81548160ff02191690831515021790555050508080612237906144db565b915050611c7f565b507f021825f4240ebfca26f3f23a3d2aba64d30d6d490b35989792c561eeb83dacae8160405161226f9190613ffd565b60405180910390a150565b600160009054906101000a900473ffffffffffffffffffffffffffffffffffffffff1681565b60008060009054906101000a900473ffffffffffffffffffffffffffffffffffffffff16905090565b600080600090505b8373ffffffffffffffffffffffffffffffffffffffff16838281518110612321577f4e487b7100000000000000000000000000000000000000000000000000000000600052603260045260246000fd5b602002602001015173ffffffffffffffffffffffffffffffffffffffff161461235757808061234f906144db565b9150506122d1565b8091505092915050565b600160009054906101000a900473ffffffffffffffffffffffffffffffffffffffff1673ffffffffffffffffffffffffffffffffffffffff163373ffffffffffffffffffffffffffffffffffffffff16146123f1576040517f08c379a00000000000000000000000000000000000000000000000000000000081526004016123e890614121565b60405180910390fd5b603281511115612436576040517f08c379a000000000000000000000000000000000000000000000000000000000815260040161242d90614201565b60405180910390fd5b60005b81518110156126cb57600282828151811061247d577f4e487b7100000000000000000000000000000000000000000000000000000000600052603260045260246000fd5b60200260200101519080600181540180825580915050600190039060005260206000200160009091909190916101000a81548173ffffffffffffffffffffffffffffffffffffffff021916908373ffffffffffffffffffffffffffffffffffffffff1602179055506005828281518110612520577f4e487b7100000000000000000000000000000000000000000000000000000000600052603260045260246000fd5b60200260200101519080600181540180825580915050600190039060005260206000200160009091909190916101000a81548173ffffffffffffffffffffffffffffffffffffffff021916908373ffffffffffffffffffffffffffffffffffffffff1602179055506001600d60008484815181106125c7577f4e487b7100000000000000000000000000000000000000000000000000000000600052603260045260246000fd5b602002602001015173ffffffffffffffffffffffffffffffffffffffff1673ffffffffffffffffffffffffffffffffffffffff16815260200190815260200160002060006101000a81548160ff02191690831515021790555060016010600084848151811061265f577f4e487b7100000000000000000000000000000000000000000000000000000000600052603260045260246000fd5b602002602001015173ffffffffffffffffffffffffffffffffffffffff1673ffffffffffffffffffffffffffffffffffffffff16815260200190815260200160002060006101000a81548160ff02191690831515021790555080806126c3906144db565b915050612439565b507f38491476905aafb6d367121b3596d6d694ae0d5a02dbfe093843a7c08ae7d431816040516126fb9190613ffd565b60405180910390a150565b6003818154811061271657600080fd5b906000526020600020016000915054906101000a900473ffffffffffffffffffffffffffffffffffffffff1681565b61274d613674565b73ffffffffffffffffffffffffffffffffffffffff1661276b6122a0565b73ffffffffffffffffffffffffffffffffffffffff16146127c1576040517f08c379a00000000000000000000000000000000000000000000000000000000081526004016127b890614181565b60405180910390fd5b80600160006101000a81548173ffffffffffffffffffffffffffffffffffffffff021916908373ffffffffffffffffffffffffffffffffffffffff16021790555050565b600160009054906101000a900473ffffffffffffffffffffffffffffffffffffffff1673ffffffffffffffffffffffffffffffffffffffff163373ffffffffffffffffffffffffffffffffffffffff1614612895576040517f08c379a000000000000000000000000000000000000000000000000000000000815260040161288c90614121565b60405180910390fd5b6032815111156128da576040517f08c379a00000000000000000000000000000000000000000000000000000000081526004016128d190614101565b60405180910390fd5b60005b8151811015612b6f576004828281518110612921577f4e487b7100000000000000000000000000000000000000000000000000000000600052603260045260246000fd5b60200260200101519080600181540180825580915050600190039060005260206000200160009091909190916101000a81548173ffffffffffffffffffffffffffffffffffffffff021916908373ffffffffffffffffffffffffffffffffffffffff16021790555060058282815181106129c4577f4e487b7100000000000000000000000000000000000000000000000000000000600052603260045260246000fd5b60200260200101519080600181540180825580915050600190039060005260206000200160009091909190916101000a81548173ffffffffffffffffffffffffffffffffffffffff021916908373ffffffffffffffffffffffffffffffffffffffff1602179055506001600f6000848481518110612a6b577f4e487b7100000000000000000000000000000000000000000000000000000000600052603260045260246000fd5b602002602001015173ffffffffffffffffffffffffffffffffffffffff1673ffffffffffffffffffffffffffffffffffffffff16815260200190815260200160002060006101000a81548160ff021916908315150217905550600160106000848481518110612b03577f4e487b7100000000000000000000000000000000000000000000000000000000600052603260045260246000fd5b602002602001015173ffffffffffffffffffffffffffffffffffffffff1673ffffffffffffffffffffffffffffffffffffffff16815260200190815260200160002060006101000a81548160ff0219169083151502179055508080612b67906144db565b9150506128dd565b507f8113926547cd404df92b603f19e0d4f68b9d47fba7b348acbe49a4fe87f0706681604051612b9f9190613ffd565b60405180910390a150565b600160009054906101000a900473ffffffffffffffffffffffffffffffffffffffff1673ffffffffffffffffffffffffffffffffffffffff163373ffffffffffffffffffffffffffffffffffffffff1614612c3a576040517f08c379a0000000000000000000000000000000000000000000000000000000008152600401612c3190614121565b60405180910390fd5b603281511115612c7f576040517f08c379a0000000000000000000000000000000000000000000000000000000008152600401612c76906141c1565b60405180910390fd5b60005b8151811015613242576000612d5d838381518110612cc9577f4e487b7100000000000000000000000000000000000000000000000000000000600052603260045260246000fd5b60200260200101516002805480602002602001604051908101604052809291908181526020018280548015612d5357602002820191906000526020600020905b8160009054906101000a900473ffffffffffffffffffffffffffffffffffffffff1673ffffffffffffffffffffffffffffffffffffffff1681526020019060010190808311612d09575b50505050506122c9565b905060026001600280549050612d739190614395565b81548110612daa577f4e487b7100000000000000000000000000000000000000000000000000000000600052603260045260246000fd5b9060005260206000200160009054906101000a900473ffffffffffffffffffffffffffffffffffffffff1660028281548110612e0f577f4e487b7100000000000000000000000000000000000000000000000000000000600052603260045260246000fd5b9060005260206000200160006101000a81548173ffffffffffffffffffffffffffffffffffffffff021916908373ffffffffffffffffffffffffffffffffffffffff1602179055506002805480612e8f577f4e487b7100000000000000000000000000000000000000000000000000000000600052603160045260246000fd5b6001900381819060005260206000200160006101000a81549073ffffffffffffffffffffffffffffffffffffffff021916905590556000612f96848481518110612f02577f4e487b7100000000000000000000000000000000000000000000000000000000600052603260045260246000fd5b60200260200101516005805480602002602001604051908101604052809291908181526020018280548015612f8c57602002820191906000526020600020905b8160009054906101000a900473ffffffffffffffffffffffffffffffffffffffff1673ffffffffffffffffffffffffffffffffffffffff1681526020019060010190808311612f42575b50505050506122c9565b905060056001600580549050612fac9190614395565b81548110612fe3577f4e487b7100000000000000000000000000000000000000000000000000000000600052603260045260246000fd5b9060005260206000200160009054906101000a900473ffffffffffffffffffffffffffffffffffffffff1660058281548110613048577f4e487b7100000000000000000000000000000000000000000000000000000000600052603260045260246000fd5b9060005260206000200160006101000a81548173ffffffffffffffffffffffffffffffffffffffff021916908373ffffffffffffffffffffffffffffffffffffffff16021790555060058054806130c8577f4e487b7100000000000000000000000000000000000000000000000000000000600052603160045260246000fd5b6001900381819060005260206000200160006101000a81549073ffffffffffffffffffffffffffffffffffffffff021916905590556000600d600086868151811061313c577f4e487b7100000000000000000000000000000000000000000000000000000000600052603260045260246000fd5b602002602001015173ffffffffffffffffffffffffffffffffffffffff1673ffffffffffffffffffffffffffffffffffffffff16815260200190815260200160002060006101000a81548160ff0219169083151502179055506000601060008686815181106131d4577f4e487b7100000000000000000000000000000000000000000000000000000000600052603260045260246000fd5b602002602001015173ffffffffffffffffffffffffffffffffffffffff1673ffffffffffffffffffffffffffffffffffffffff16815260200190815260200160002060006101000a81548160ff0219169083151502179055505050808061323a906144db565b915050612c82565b507fdd7711054366d29fb9a701af15fb8c163747de233657fbb3256580de32522c3c816040516132729190613ffd565b60405180910390a150565b600d6020528060005260406000206000915054906101000a900460ff1681565b6060600960000180546132af90614478565b80601f01602080910402602001604051908101604052809291908181526020018280546132db90614478565b80156133285780601f106132fd57610100808354040283529160200191613328565b820191906000526020600020905b81548152906001019060200180831161330b57829003601f168201915b5050505050905090565b600160009054906101000a900473ffffffffffffffffffffffffffffffffffffffff1673ffffffffffffffffffffffffffffffffffffffff163373ffffffffffffffffffffffffffffffffffffffff1614806133d75750600e60003373ffffffffffffffffffffffffffffffffffffffff1673ffffffffffffffffffffffffffffffffffffffff16815260200190815260200160002060009054906101000a900460ff165b8061342b5750600d60003373ffffffffffffffffffffffffffffffffffffffff1673ffffffffffffffffffffffffffffffffffffffff16815260200190815260200160002060009054906101000a900460ff165b61346a576040517f08c379a000000000000000000000000000000000000000000000000000000000815260040161346190614141565b60405180910390fd5b60006040518060a001604052808573ffffffffffffffffffffffffffffffffffffffff1681526020016006548152602001848152602001838152602001600081525090508060126000600654815260200190815260200160002060008201518160000160006101000a81548173ffffffffffffffffffffffffffffffffffffffff021916908373ffffffffffffffffffffffffffffffffffffffff160217905550602082015181600101556040820151816002019080519060200190613531929190613740565b50606082015181600301908051906020019061354e929190613740565b506080820151816004015590505060016006600082825461356f919061433f565b9250508190555050505050565b613584613674565b73ffffffffffffffffffffffffffffffffffffffff166135a26122a0565b73ffffffffffffffffffffffffffffffffffffffff16146135f8576040517f08c379a00000000000000000000000000000000000000000000000000000000081526004016135ef90614181565b60405180910390fd5b600073ffffffffffffffffffffffffffffffffffffffff168173ffffffffffffffffffffffffffffffffffffffff161415613668576040517f08c379a000000000000000000000000000000000000000000000000000000000815260040161365f906140c1565b60405180910390fd5b6136718161367c565b50565b600033905090565b60008060009054906101000a900473ffffffffffffffffffffffffffffffffffffffff169050816000806101000a81548173ffffffffffffffffffffffffffffffffffffffff021916908373ffffffffffffffffffffffffffffffffffffffff1602179055508173ffffffffffffffffffffffffffffffffffffffff168173ffffffffffffffffffffffffffffffffffffffff167f8be0079c531659141344cd1fd0a4f28419497f9722a3daafe3b4186f6b6457e060405160405180910390a35050565b82805461374c90614478565b90600052602060002090601f01602090048101928261376e57600085556137b5565b82601f1061378757805160ff19168380011785556137b5565b828001600101855582156137b5579182015b828111156137b4578251825591602001919060010190613799565b5b5090506137c29190613826565b5090565b828054828255906000526020600020908101928215613815579160200282015b82811115613814578251829080519060200190613804929190613740565b50916020019190600101906137e6565b5b5090506138229190613843565b5090565b5b8082111561383f576000816000905550600101613827565b5090565b5b80821115613863576000818161385a9190613867565b50600101613844565b5090565b50805461387390614478565b6000825580601f1061388557506138a4565b601f0160209004906000526020600020908101906138a39190613826565b5b50565b60006138ba6138b584614261565b61423c565b905080838252602082019050828560208602820111156138d957600080fd5b60005b8581101561390957816138ef88826139d7565b8452602084019350602083019250506001810190506138dc565b5050509392505050565b60006139266139218461428d565b61423c565b9050808382526020820190508285602086028201111561394557600080fd5b60005b8581101561398f57813567ffffffffffffffff81111561396757600080fd5b8086016139748982613a55565b85526020850194506020840193505050600181019050613948565b5050509392505050565b60006139ac6139a7846142b9565b61423c565b9050828152602081018484840111156139c457600080fd5b6139cf848285614436565b509392505050565b6000813590506139e681614921565b92915050565b600082601f8301126139fd57600080fd5b8135613a0d8482602086016138a7565b91505092915050565b600082601f830112613a2757600080fd5b8135613a37848260208601613913565b91505092915050565b600081359050613a4f81614938565b92915050565b600082601f830112613a6657600080fd5b8135613a76848260208601613999565b91505092915050565b600081359050613a8e81614948565b92915050565b600060208284031215613aa657600080fd5b6000613ab4848285016139d7565b91505092915050565b60008060408385031215613ad057600080fd5b6000613ade858286016139d7565b925050602083013567ffffffffffffffff811115613afb57600080fd5b613b07858286016139ec565b9150509250929050565b600080600060608486031215613b2657600080fd5b6000613b34868287016139d7565b935050602084013567ffffffffffffffff811115613b5157600080fd5b613b5d86828701613a55565b925050604084013567ffffffffffffffff811115613b7a57600080fd5b613b8686828701613a55565b9150509250925092565b600060208284031215613ba257600080fd5b600082013567ffffffffffffffff811115613bbc57600080fd5b613bc8848285016139ec565b91505092915050565b60008060008060808587031215613be757600080fd5b600085013567ffffffffffffffff811115613c0157600080fd5b613c0d87828801613a55565b945050602085013567ffffffffffffffff811115613c2a57600080fd5b613c3687828801613a55565b9350506040613c4787828801613a40565b925050606085013567ffffffffffffffff811115613c6457600080fd5b613c7087828801613a16565b91505092959194509250565b600060208284031215613c8e57600080fd5b6000613c9c84828501613a7f565b91505092915050565b6000613cb18383613cbd565b60208301905092915050565b613cc6816143c9565b82525050565b613cd5816143c9565b82525050565b6000613ce6826142fa565b613cf0818561431d565b9350613cfb836142ea565b8060005b83811015613d2c578151613d138882613ca5565b9750613d1e83614310565b925050600181019050613cff565b5085935050505092915050565b613d42816143db565b82525050565b613d5181614424565b82525050565b6000613d6282614305565b613d6c818561432e565b9350613d7c818560208601614445565b613d85816145e0565b840191505092915050565b6000613d9d602e8361432e565b9150613da8826145f1565b604082019050919050565b6000613dc060268361432e565b9150613dcb82614640565b604082019050919050565b6000613de360168361432e565b9150613dee8261468f565b602082019050919050565b6000613e06602b8361432e565b9150613e11826146b8565b604082019050919050565b6000613e2960188361432e565b9150613e3482614707565b602082019050919050565b6000613e4c601b8361432e565b9150613e5782614730565b602082019050919050565b6000613e6f60448361432e565b9150613e7a82614759565b606082019050919050565b6000613e9260208361432e565b9150613e9d826147ce565b602082019050919050565b6000613eb5602a8361432e565b9150613ec0826147f7565b604082019050919050565b6000613ed8602e8361432e565b9150613ee382614846565b604082019050919050565b6000613efb60168361432e565b9150613f0682614895565b602082019050919050565b6000613f1e602b8361432e565b9150613f29826148be565b604082019050919050565b613f3d8161441a565b82525050565b6000602082019050613f586000830184613ccc565b92915050565b6000606082019050613f736000830186613ccc565b8181036020830152613f858185613d57565b9050613f946040830184613d39565b949350505050565b600060a082019050613fb16000830188613ccc565b613fbe6020830187613f34565b8181036040830152613fd08186613d57565b90508181036060830152613fe48185613d57565b9050613ff36080830184613f34565b9695505050505050565b600060208201905081810360008301526140178184613cdb565b905092915050565b60006020820190506140346000830184613d39565b92915050565b600060208201905081810360008301526140548184613d57565b905092915050565b600060608201905081810360008301526140768186613d57565b9050818103602083015261408a8185613d57565b90506140996040830184613d48565b949350505050565b600060208201905081810360008301526140ba81613d90565b9050919050565b600060208201905081810360008301526140da81613db3565b9050919050565b600060208201905081810360008301526140fa81613dd6565b9050919050565b6000602082019050818103600083015261411a81613df9565b9050919050565b6000602082019050818103600083015261413a81613e1c565b9050919050565b6000602082019050818103600083015261415a81613e3f565b9050919050565b6000602082019050818103600083015261417a81613e62565b9050919050565b6000602082019050818103600083015261419a81613e85565b9050919050565b600060208201905081810360008301526141ba81613ea8565b9050919050565b600060208201905081810360008301526141da81613ecb565b9050919050565b600060208201905081810360008301526141fa81613eee565b9050919050565b6000602082019050818103600083015261421a81613f11565b9050919050565b60006020820190506142366000830184613f34565b92915050565b6000614246614257565b905061425282826144aa565b919050565b6000604051905090565b600067ffffffffffffffff82111561427c5761427b6145b1565b5b602082029050602081019050919050565b600067ffffffffffffffff8211156142a8576142a76145b1565b5b602082029050602081019050919050565b600067ffffffffffffffff8211156142d4576142d36145b1565b5b6142dd826145e0565b9050602081019050919050565b6000819050602082019050919050565b600081519050919050565b600081519050919050565b6000602082019050919050565b600082825260208201905092915050565b600082825260208201905092915050565b600061434a8261441a565b91506143558361441a565b9250827fffffffffffffffffffffffffffffffffffffffffffffffffffffffffffffffff0382111561438a57614389614524565b5b828201905092915050565b60006143a08261441a565b91506143ab8361441a565b9250828210156143be576143bd614524565b5b828203905092915050565b60006143d4826143fa565b9050919050565b60008115159050919050565b60008190506143f58261490d565b919050565b600073ffffffffffffffffffffffffffffffffffffffff82169050919050565b6000819050919050565b600061442f826143e7565b9050919050565b82818337600083830152505050565b60005b83811015614463578082015181840152602081019050614448565b83811115614472576000848401525b50505050565b6000600282049050600182168061449057607f821691505b602082108114156144a4576144a3614582565b5b50919050565b6144b3826145e0565b810181811067ffffffffffffffff821117156144d2576144d16145b1565b5b80604052505050565b60006144e68261441a565b91507fffffffffffffffffffffffffffffffffffffffffffffffffffffffffffffffff82141561451957614518614524565b5b600182019050919050565b7f4e487b7100000000000000000000000000000000000000000000000000000000600052601160045260246000fd5b7f4e487b7100000000000000000000000000000000000000000000000000000000600052602160045260246000fd5b7f4e487b7100000000000000000000000000000000000000000000000000000000600052602260045260246000fd5b7f4e487b7100000000000000000000000000000000000000000000000000000000600052604160045260246000fd5b6000601f19601f8301169050919050565b7f43616e206f6e6c792072656d6f76652061206d6178206f66203530207374756460008201527f656e747320617420612074696d65000000000000000000000000000000000000602082015250565b7f4f776e61626c653a206e6577206f776e657220697320746865207a65726f206160008201527f6464726573730000000000000000000000000000000000000000000000000000602082015250565b7f566f74696e6720686173206e6f74207374617274656400000000000000000000600082015250565b7f43616e206f6e6c79207365742061206d6178206f662035302073747564656e7460008201527f7320617420612074696d65000000000000000000000000000000000000000000602082015250565b7f596f75277265206e6f74207468652043686169726d616e210000000000000000600082015250565b7f596f75277265206e6f7420612054727573746565204d656d6265720000000000600082015250565b7f43616e206f6e6c79207365742061206d6178206f66203530206d656d6265727360008201527f206f662074686520426f617264206f66204469726563746f727320617420612060208201527f74696d6500000000000000000000000000000000000000000000000000000000604082015250565b7f4f776e61626c653a2063616c6c6572206973206e6f7420746865206f776e6572600082015250565b7f43616e206f6e6c792072656d6f76652061206d6178206f6620353020424f447360008201527f20617420612074696d6500000000000000000000000000000000000000000000602082015250565b7f43616e206f6e6c792072656d6f76652061206d6178206f66203530207465616360008201527f6865727320617420612074696d65000000000000000000000000000000000000602082015250565b7f596f75206861766520616c726561647920766f74656400000000000000000000600082015250565b7f43616e206f6e6c79207365742061206d6178206f66203530207465616368657260008201527f7320617420612074696d65000000000000000000000000000000000000000000602082015250565b6004811061491e5761491d614553565b5b50565b61492a816143c9565b811461493557600080fd5b50565b6004811061494557600080fd5b50565b6149518161441a565b811461495c57600080fd5b5056fea26469706673582212208e6676fa1ea174a52081fbba540df27809b70249b495d20a811e9d5d193954e364736f6c63430008040033",
  "linkReferences": {},
  "deployedLinkReferences": {}
}